:10000000C00C0020511E0000E13D0000E11C00007A
:10001000E11C0000E11C0000E11C0000E11C0000EC
:10002000E11C0000E11C0000E11C0000451900007B
:10003000E11C0000E11C0000ED180000C93D0000BB
:10004000111E0000111E0000111E0000111E0000F4
:10005000111E0000111E0000111E0000111E0000E4
:10006000111E0000111E0000111E0000111E0000D4
:10007000111E0000111E0000111E0000111E0000C4
:10008000111E0000111E0000111E0000111E0000B4
:10009000111E0000111E0000111E0000111E0000A4
:1000A000111E0000111E0000111E0000111E000094
:1000B000111E0000111E0000111E0000111E000084
:1000C000111E0000111E0000111E0000111E000074
:0C00D000111E0000111E0000111E000097
:1000DC007BB972B90029BEBF00204FF0004106E089
:1000EC0008BF00281CBF6FF000414FF0FF3000F03C
:1000FC00BDB9ADF1080C6DE904CE002909DB002B6C
:10010C001ADB00F04DF8DDF804E0DDE9022304B061
:10011C007047404261EB4101002B1BDB00F040F8C3
:10012C00DDF804E0DDE9022304B0404261EB41015B
:10013C00524263EB43037047524263EB430300F0BC
:10014C002FF8DDF804E0DDE9022304B0404261EB56
:10015C0041017047524263EB430300F021F8DDF894
:10016C0004E0DDE9022304B0524263EB4303704721
:10017C0053B94AB9002908BF00281CBF4FF0FF3102
:10018C004FF0FF3000F072B9ADF1080C6DE904CE00
:10019C0000F006F8DDF804E0DDE9022304B0704756
:1001AC002DE9F047089E04468846002B4BD18A4225
:1001BC00154667D9B2FA82F24AB1C2F1200701FAA8
:1001CC0002F320FA07F7954047EA030894404FEAF8
:1001DC00154E230CB8FBFEF71FFA85FC0EFB178897
:1001EC0043EA084307FB0CF1994209D9EB1807F1D4
:1001FC00FF3080F01B81994240F21881023F2B4462
:10020C005B1AA4B2B3FBFEF00EFB103344EA0344BA
:10021C0000FB0CFCA44509D92C1900F1FF3380F02C
:10022C000781A44540F2048102382C4440EA07407F
:10023C00A4EB0C0400271EB1D4400023C6E90043F4
:10024C003946BDE8F0878B4209D9002E00F0EB80CF
:10025C000027C6E9000138463946BDE8F087B3FAF5
:10026C0083F7002F47D18B4202D3824200F2FA80EF
:10027C00841A61EB030301209846002EE0D0C6E9F6
:10028C000048DDE702B9FFDEB2FA82F2002A40F044
:10029C008F80491B4FEA154E1FFA85F80127B1FBD9
:1002AC00FEFC230C0EFB1C1143EA014308FB0CF172
:1002BC00994207D9EB180CF1FF3002D2994200F2A7
:1002CC00CD808446591AA3B2B1FBFEF00EFB10147C
:1002DC0043EA044408FB00F8A04507D92C1900F1A7
:1002EC00FF3302D2A04500F2B6801846A4EB0804F6
:1002FC0040EA0C409FE7C7F1200CBB4022FA0CFEF1
:10030C004EEA030E01FA07F420FA0CF521FA0CF36D
:10031C004FEA1E482543B3FBF8F92C0C08FB1933A4
:10032C001FFA8EFA44EA034309FB0AF49C4202FAD0
:10033C0007F200FA07F10BD91EEB030309F1FF30AA
:10034C0080F087809C4240F28480A9F102097344BA
:10035C001B1BADB2B3FBF8F008FB103345EA0344AA
:10036C0000FB0AFAA24508D91EEB040400F1FF3386
:10037C006BD2A24569D90238744440EA0940A0FB0B
:10038C000289A4EB0A044C45C2464B4654D351D0C7
:10039C00002E69D0B1EB0A0564EB030404FA0CFCE3
:1003AC00FD40FC404CEA0505C6E90054002747E730
:1003BC00C2F1200320FA03F7954001FA02F021FA6A
:1003CC0003F34FEA154E3843010CB3FBFEF71FFA4B
:1003DC0085F80EFB173341EA034107FB08F38B4208
:1003EC0004FA02F407D9691807F1FF3C2FD28B42AB
:1003FC002DD9023F2944CB1A81B2B3FBFEF00EFB80
:10040C00103341EA034100FB08F38B4207D969180A
:10041C0000F1FF3C17D28B4215D902382944C91A76
:10042C0040EA07473BE73746304609E70746E7E629
:10043C001846FBE64145ABD2B8EB020A69EB0E025B
:10044C0001381346A4E76046E9E7184695E7674686
:10045C00D1E781467CE702382C4447E7ACF1020C2B
:10046C002B442FE7384608E73746E9E6704700BFCC
:10047C0008B51F4803F02DFC1E4803F02AFC03F0BE
:10048C00FCF903F016FA00F09DFA002000F0D6F902
:10049C00013003D1184803F01CFCFEE703F00FFAFF
:1004AC001648174C00F03CF8012000F03BF90022F4
:1004BC0021460C2003F05EF800220C20114600F0BF
:1004CC0021F8002000F06AF900210F2003F082F8D7
:1004DC000306F9D5802200210F2003F0BDF84FF45C
:1004EC007A7003F0BEF9637801336370DFE700BF05
:1004FC00F247000001480000094800007016002077
:10050C007C160020054B1B68DB6843EAC2320243B1
:10051C0042EA81520820002103F09EB80016002008
:10052C002DE9F843067847784279724B013F042E47
:10053C00044633F81280FFB200F0BE80F31FD3F1F3
:10054C00000949EB03096C4DE1792B681A69002904
:10055C0040F0B58042F480021A614FEAD808217A43
:10056C001A699972090401F4403122F440320A43A9
:10057C001A610021042003F06FF8424642F6040190
:10058C002E2003F05AF8384603F09EF85B4B13F814
:10059C0006805B4B072153F828202B2003F05CF8D6
:1005AC00584B0B2113F808202B2003F03AF8564B2C
:1005BC000B2113F80920282003F033F8534B0C219E
:1005CC0053F82820282003F047F8E279A37903EBAD
:1005DC0042034F4A022132F81320272003F02DF852
:1005EC004C4B042133F81720272003F026F8E3792D
:1005FC00002B68D164220621272003F01EF8E37833
:10060C00454A03EB8703082152F82320272003F0E7
:10061C0023F8638913B941F241036381DFF8008148
:10062C0062892021272008EB470703F006F8D8F849
:10063C0000200C21232003F00FF82320BA8804217A
:10064C0002F0FBFFA079002852D0E379334A212035
:10065C00D25C002102F0E5FF01220320617906F053
:10066C000F0343EAC1636178890401F440210B4311
:10067C002179890501F0F86136010B43F6B2334359
:10068C0043EA005343EA424200211F2002F0E4FFF8
:10069C00A27863781343E279520342EA03422B684F
:1006AC000021DA60082002F0D7FF422200210D2041
:1006BC00BDE8F84302F0B5BF4FF0010943E722F45F
:1006CC0080021A614BE7A378042B0AD11022062171
:1006DC00272002F0B2FF10222621272002F0A1FFD2
:1006EC008DE720220621272002F0A7FF2822F3E71E
:1006FC000246B3E7B447000000160020154800007E
:10070C00E04600002048000026480000F8460000A3
:10071C00E6470000B0470000C04600001D4800003E
:10072C00B846000038B510F00105044629D0002168
:10073C00262002F04FFF20F4705242F4A052002108
:10074C00262002F089FF0021362002F043FF002111
:10075C0040F40402362002F07FFF14F002040E4A2B
:10076C004FF0280108BF4FF48872362002F074FF56
:10077C0084B14FF4887228213620BDE8384002F04D
:10078C006BBF2946262002F025FF294620F4705223
:10079C002620F2E738BD00BF10010F0010F0020256
:1007AC0010B504D0124B1B6801225A75802210F030
:1007BC00010414D042F0060200210D2002F031FF9A
:1007CC0003210F2002F01CFF10F4816006D00D20D5
:1007DC004022002102F025FF4FF0FF3010BD0D200C
:1007EC0042F00202214602F01CFF2046F6E700BF51
:1007FC000016002008B502F0F8FF002211462C204C
:10080C0002F01BFF002206212C2002F00AFF02F04E
:10081C004EFF00220321362002F003FF012003F0DB
:10082C0072F8F0220321362002F0FBFE024B1B680B
:10083C0000225A7508BD00BF00160020F8B55F4CA9
:10084C00236800225A61C3E90A22C3E90C22054637
:10085C0002F0D2FE5A4B984240F0A88015F00206E6
:10086C0040F0A780FFF7C6FF002002F042FF0422F1
:10087C000021242002F0D5FEFEB9042002F001FF75
:10088C0010F0FF0F09D0022212212D2002F0C9FE18
:10089C002268D38A43F48053D3821E2002F0F1FEE7
:1008AC0080B210F01F0F23684FEA102208BF1020EF
:1008BC00DA72C0B202F0A4FF1AE03021282002F054
:1008CC0089FEB0F1883F04D02268D38A43F4805368
:1008DC00D38205F00A030A2B07D11E2002F0D1FEA9
:1008EC002368C0F30720D87202E023680022DA7272
:1008FC0015F01003276827D0062002F0C2FE3860DE
:10090C0015F02003276821D0072002F0BAFE78608A
:10091C0015F040021CD0082002F0B3FE23681872B8
:10092C0015F0800217D0092002F0ABFE2368587234
:10093C00002E38D1EA0711D502F045FF2268D38A80
:10094C0043F40063D38214E03B60D9E77B60DFE7BC
:10095C0023681A72E4E723685A72E9E70521362006
:10096C0002F04EFE4FF6FF5202400521362002F0F7
:10097C0064FE012002F0BDFE00220A212C2002F0B0
:10098C0050FE00210420256802F024FE2468286112
:10099C00638A03F00303A3720021082002F01AFEFD
:1009AC00E0600020F8BD6B07E3D4C7E74FF0FF30E1
:1009BC00F8E715F0F80F3FF457AF58E70016002092
:1009CC003001CADE38B5174C174B1848236001F0BC
:1009DC0003FF174B186028B9164803F07AF94FF04B
:1009EC00FF3038BD2368144D144C4FF480729A803C
:1009FC00134A1A600021FF22284603F03EFAFF2218
:100A0C000021204603F039FA0E4B0F490F4A1D60A6
:100A1C009C600B600833136001234B605360002013
:100A2C00DFE700BF5C0000206000002028480000C9
:100A3C00580000202E480000A3030020A402002030
:100A4C0080841E00400000209000002050000020F8
:100A5C0008B50A4A0A4B13604FF480729A80094A0F
:100A6C001A600021FF22084803F007FAFF22002138
:100A7C000648BDE8084003F000BA00BF5C00002047
:100A8C006000002080841E00A3030020A40200202C
:100A9C0008B50B4B0B4A0C4803F10C0111604FF4D9
:100AAC0080721A82094ADA600021FF2203F0E5F90C
:100ABC00FF2200210648BDE8084003F0DEB900BF64
:100ACC00600000205C000020A303002000127A00CC
:100ADC00A40200202DE9F8439846154604468946A1
:100AEC0002F004FF0F4E074622464946304603F0FB
:100AFC0097F92A464146301903F092F90A4B0B49F3
:100B0C000B4A09682C445C60DC600A4B186843682B
:100B1C001C68094BA047384602F0F1FE0020BDE8E6
:100B2C00F88300BFA3030020400000205C000020DD
:100B3C009000002058000020500000202DE9F047C4
:100B4C009946044616468A4602F0D0FE124FA51965
:100B5C0080462A460021384603F08FF9224651463A
:100B6C00384603F05DF90D4B0D495D60DD600D4BB2
:100B7C000D4A1868096843681D680C4BA8470C4956
:100B8C0032462144484603F04BF9404602F0B7FE8A
:100B9C000020BDE8F08700BFA30300204000002028
:100BAC005C00002058000020900000205000002025
:100BBC00A40200200B6801330B60014B1B68184723
:100BCC00041600202DE9F04F85B09B460E9CDFF8F3
:100BDC0090A0012CB8BF0124012B0CBF3023202383
:100BEC001546804689460194029301260A27002265
:100BFC000AF101040AB9AA451FD2B5FBF4F0494623
:100C0C003030C04701360122013F012FB5FBF4F112
:100C1C004FF00A0304FB1155BAFBF3FAE8D149462D
:100C2C0005F13000C047BBF1030F03D1019B9C1BA6
:100C3C00002C0FDC05B0BDE8F08F019BBB42E3DB61
:100C4C00BBF1020FE0D84946029803920136C04727
:100C5C00039AD9E749462020C047013CE8E700BF8A
:100C6C00FFC99A3B014B1860704700BF0416002067
:100C7C0013B502AC002344F8043D02460B4603486E
:100C8C00214602F0CAFE02B010BD00BFC10B00002D
:100C9C0010B54FF02003EFF3118483F31188BFF3E9
:100CAC006F8F00F05BF8094A0123C2F840354FF012
:100CBC008042C2F87835064B4FF0FF329A62DA6206
:100CCC0084F31188BFF36F8F002010BD00E001404A
:100CDC0000ED00E020B1034B800143F00103184705
:100CEC00704700BFB04600000C4B1B78062B10D190
:100CFC000B4B1B681A070CD10A4B186800F0F00359
:100D0C00302B08D000F0E000A0F1400358425841CD
:100D1C007047002070470120704700BFE00F00F0C3
:100D2C00E40F00F0E80F00F0094B1B78062B0CD1F8
:100D3C00084B1B681A0708D1074B186800F0F00025
:100D4C00A0F130035842584170470020704700BF53
:100D5C00E00F00F0E40F00F0E80F00F008B5FFF72B
:100D6C00C3FF28B1784B794A1B68C3F30423136083
:100D7C00FFF7DAFF10B1764B764A1A60FFF7B4FF33
:100D8C0028B1754B754A1B68C3F342331360FFF7E8
:100D9C00CBFF20B1724AD36823F08073D360FFF786
:100DAC00A3FF40B14FF080430022C3F80C21C3F8DD
:100DBC001021C3F83825FFF7B7FF10B1694B032298
:100DCC001A60FFF7B1FF40B1674B05221A60012290
:100DDC009A6700229A603F225A60644B1B78062B5C
:100DEC0050D1634B1B6819074CD1624B1B6803F045
:100DFC00F003502B46D14FF080525F4BD2F80414C5
:100E0C00C3F82015D2F80814C3F82415D2F80C1422
:100E1C00C3F82815D2F81014C3F82C15D2F81414F2
:100E2C00C3F83015D2F81814C3F83415D2F81C14C2
:100E3C00C3F84015D2F82014C3F84415D2F8241482
:100E4C00C3F84815D2F82814C3F84C15D2F82C1452
:100E5C00C3F85015D2F83014C3F85415D2F8341422
:100E6C00C3F86015D2F83814C3F86415D2F83C14E2
:100E7C00C3F86815D2F84014C3F86C15D2F84424A2
:100E8C00C3F87025FFF730FF28B13C4B3C4A1B6878
:100E9C0003F04F031360FFF727FF48B14FF0804377
:100EAC00D3F80024D20744BF6FF00102C3F800242A
:100EBC00344B1B68062B08D1334B1B68062B01BF28
:100ECC00324A136843F4806313604FF01023D3F855
:100EDC000022002A03DBD3F80432002B2FDA2C4B30
:100EEC000122C3F80425D3F80024002AFBD04FF0CC
:100EFC0010221521C2F80012D3F80024002AFBD0CE
:100F0C004FF010231522C3F80422214B1A46D3F8B4
:100F1C0000140029FBD00021C3F80415D2F80034CA
:100F2C00002BFBD0BFF34F8F1A491B4BCA6802F43E
:100F3C00E0621343CB60BFF34F8F00BFFDE7174B4D
:100F4C00174A1A6008BD00BF240300104035014049
:100F5C0074C007400DF0ADBA440200103C050040CF
:100F6C00F0ED00E0A005004010560040E00F00F04E
:100F7C00E40F00F0E80F00F000C000405802001031
:100F8C00E40E004030010010340100103C1700400A
:100F9C0000E0014000ED00E00400FA050816002016
:100FAC000090D0032DE9F04704794F4D944624224C
:100FBC006243AE18377F002F40F09380006845F8ED
:100FCC0002C0736091F800E00F7B4FF0A046012344
:100FDC0003FA0EF3012F94BFC6F80C35C6F808358A
:100FEC000EF5E073012246F823204B78FF2B1FBF30
:100FFC009A40C6F80C2503F5E0724FF0030818BFB1
:10100C0046F822808E7808BF4FF0FF33FF2E1FBFAB
:10101C0006F5E0724FF0A0494FF0040A49F822A0FF
:10102C004FF0240202FB045218BFB04682F8206035
:10103C00CE78D67708BF4FF0FF38FF2E14D091F83A
:10104C0004900122B2404FF0A04AB9F1000F3FD0FA
:10105C00CAF80C2506F5E07603224AF8262024224D
:10106C0002FB045282F81E90C0F808E5C0F80C355B
:10107C008B68C0F81085C0F824354B7B003318BF43
:10108C000123022F27D0032F28D0012F01D143F0A9
:10109C000203C0F854358B79C0F8C035BCF1000F91
:1010AC0002D04023C0F804330723C0F80035BCF14C
:1010BC00000F03D040F3073000F09AFD242303FB0C
:1010CC00045400236377094801232377BDE8F08794
:1010DC00CAF80825BEE743F00403DAE743F0060339
:1010EC00D7E70348F2E700BF980000200000AD0BE3
:1010FC000500AD0B2DE9F3410479464D24236343E0
:10110C001746EA180E46517F804600297FD1EB58CE
:10111C0023B117F0140F04BF0123537796E80F0087
:10112C004FF0240C0CFB045C0CF10C0E8EE80F0041
:10113C009CF81F20FF2A08D09CF81E100123934016
:10114C004FF0A042C1B1C2F80835316821B101F0AD
:10115C006043B3F1005F06D1B26882B102F0604324
:10116C00B3F1005F0BD0242303FB04542A48002363
:10117C00637702B0BDE8F081C2F80C35E5E7D8F82A
:10118C0000307068C3F84415C3F84805F168C3F81B
:10119C0034250022C3F83815C3F81821D3F81821C8
:1011AC000192019A17F0010218BF0122C3F85025D1
:1011BC0017F0020218BF0122C3F840253A075CBFA2
:1011CC0001221A6124226243AA58B2B9D3F8182119
:1011DC00002AFBD0242303FB0454E27FFF2A07D010
:1011EC00A17F012393404FF0A04219B1C2F80C35F6
:1011FC000A48BEE7C2F80835FAE717F0040F4FF0BB
:10120C00400214BFC3F80823C3F80423F0E70448D2
:10121C00AFE700BF980000200A00AD0B0000AD0B3B
:10122C000B00AD0B4FF0402382B0D3F81831E3B173
:10123C000F4B00221A601B680193019B0D4BD97F49
:10124C00FF2907D0987F01228A404FF0A04148B176
:10125C00C1F80C2500225A771A72D3E900210648EE
:10126C0002B01047C1F80825F4E702B0704700BF80
:10127C001841004098000020A000002010B5114C2F
:10128C00114AA2610323C4E90433104BE3612266C3
:10129C004FF480630E4A23626266002310220D49CC
:1012AC00A362E01D6362E3622367E3666367A26681
:1012BC0002F09FFD0849204602F09BFD2023A371FC
:1012CC0010BD00BFBC00002058480000B204002034
:1012DC00A20400206148000065480000F8B5184CD5
:1012EC00182300FB033503FB00402544C46A012C82
:1012FC000F46164611D003D3022C1BD000240AE053
:10130C00284602F0F5FC864205D832463946284676
:10131C0002F0FCFC34462046F8BD284602F0E8FCFE
:10132C008642344628BF044622463946284602F0F7
:10133C00EDFCF0E72846BDE8F84002F004BD00BF24
:10134C00BC0000200A2838B50446074D04D1286893
:10135C0043680D215B68984728684368E1B25B6875
:10136C009847204638BD00BF6401002010B5044CDE
:10137C00204600F063FE2046BDE81040FFF772BC2B
:10138C005113000008B5044801F026FA034B18600D
:10139C00FFF7ECFF002008BD6C4800006401002042
:1013AC0010B5044C2046FFF75DFC204600F046FECD
:1013BC00002010BDC51300002DE9F341164F174D49
:1013CC008DF80700064603244FF0FF31384601F034
:1013DC0015FB01220DF107010020FFF77FFF80466E
:1013EC00384601F07BFBB8F1000F05D001232B70C0
:1013FC00304602B0BDE8F0812B78002BF8D0013CD0
:10140C0007D001F0CBFE0028DED1022001F02AFE2D
:10141C00DAE72C70ECE700BF2C170020B208002094
:10142C0010B54FF02003EFF3118283F31188BFF353
:10143C006F8F154C237833B982F31188BFF36F8FFC
:10144C006FF0440010BD013BDBB2237033B182F36B
:10145C001188BFF36F8F6FF00F00F3E70B4B187809
:10146C00012138B1217082F31188BFF36F8F6FF0B7
:10147C000A00E7E7197082F31188BFF36F8F044AF3
:10148C0011601870DEE700BFB5080020B40800201A
:10149C0004000040F8B54FF02002EFF3118382F303
:1014AC001188BFF36F8F294A1078441C147080B1D7
:1014BC0083F31188BFF36F8F4FF08043D3F80C3454
:1014CC0003F00113B3F1011F0CBF00206FF04300B8
:1014DC0009E01F4D2F783FB1107083F31188BFF3D3
:1014EC006F8F6FF00A00F8BD01262E7083F3118800
:1014FC00BFF36F8F4FF0804419B3384600F088FB70
:10150C00C4F80071D4F80433C4F804632660D4F82A
:10151C00002192B10022C4F800210E4A13F0010FF1
:10152C004FF0010308BFC4F808330020C2F8803123
:10153C0000F05EFB00232B70BEE720BF40BF20BF36
:10154C00E5E7C4F800112660F4E700BFB5080020F9
:10155C00B408002000E100E070B54FF02002EFF37A
:10156C00118382F31188BFF36F8F244D2A789AB1BF
:10157C0083F31188BFF36F8F4FF08042D2F81C3485
:10158C00D2F8182403F0030343F48033934314BFBD
:10159C006FF04300002070BD01242C7083F3118880
:1015AC00BFF36F8F4FF08043154EC3F80421022513
:1015BC00C3F81815C3F8045311F0030134604FF04D
:1015CC001806C3F80863C3F80C21C3F81021D3D153
:1015DC001022C3F83825C3F80463D3F81824D203B7
:1015EC0002D4C3F80453C7E7C3F80443FFF752FF10
:1015FC000028C1D1034BC3F80041BDE7B30800205C
:10160C000800004000E100E0F8B54FF080430546CB
:10161C00D3F808C1D3F80423D3F80071D3F804032A
:10162C00D3F80461D3F80C11D3F81041003402F054
:10163C00010218BF0124BCF1000F03D04FF0000CC5
:10164C00C3F808C1002F41D04FF080430027C3F8E6
:10165C00007152B14FF08043224F01224FF0020C27
:10166C00C3F80823C7F800C01A61EEB959B11D4B75
:10167C004FF08046002119602846C6F80C11FFF780
:10168C00CFFE0123736174B14FF08043002101241C
:10169C00C3F810112846C3F80443FFF7FBFE10B93A
:1016AC00114BC3F80041F8BD4FF080430022C3F842
:1016BC0004218207DAD50222C3F80823D3F81C349C
:1016CC009B07D3D10029DFD00124D0E7002ACCD04E
:1016DC004FF08043D3F80C3403F00113B3F1011F26
:1016EC00C3D1B7E7340C004000E100E0104B0022FE
:1016FC0010B4C3F840214FF02002EFF3118482F3B1
:10170C001188BFF36F8F0B4AD3F80405116840F2B0
:10171C004713401A20F07F40B0FBF3F003FB00139B
:10172C00136084F31188BFF36F8F10BC01F074BE8B
:10173C00001001406801002037B51F4801F04CF83B
:10174C00002835D043681D4D1B68012198470024A3
:10175C0040F24713C5F80845C5F840354FF48033BF
:10176C00C5F84433C5F8043303F1804303F58A53B9
:10177C004FF400321C601B680193019B104B01213C
:10178C00C3F880211120224600F056FA112000F0F7
:10179C002FFA0C4A012313602B60D5F8043503F2A1
:1017AC00471323F07F43C5F84035204603B030BDC6
:1017BC004FF0FF30FAE700BF734800000010014003
:1017CC0000E100E0081001404CF6690270B5B0F180
:1017DC00FF3F08BF10464FF02003EFF3118483F353
:1017EC001188BFF36F8F1349134DD1F804352E6850
:1017FC0001389042A8BF10469A1B22F07F4240F25B
:10180C00471502F5A37220EAE07005FB0020B0FB3F
:10181C00F5F005FB0060C31A23F07F431F2B98BF24
:10182C00401920F07F40C1F8400584F31188BFF3C4
:10183C006F8F70BD00100140680100204FF0200236
:10184C00EFF3118382F31188BFF36F8F084AD2F83C
:10185C000405084A1268801A20F07F4040F24712B3
:10186C00B0FBF2F083F31188BFF36F8F704700BFAA
:10187C00001001406801002004488168406A8842D9
:10188C0003D003494FF080520A6070476402002075
:10189C0004ED00E0044800232021C2180133272B5B
:1018AC0082F80013F9D1704700E100E0094A0A49B7
:1018BC00936809689966094958664B6843F08053E8
:1018CC004B60002383F31188BFF36F8F9368986E7E
:1018DC00704700BF64020020A847000000ED00E044
:1018EC00202080F31188BFF36F8F11498A684FF065
:1018FC0028001044EFF3098C80E8F01F0D4F4FF0D7
:10190C0000664A6A8A603E60506E0023536680F31C
:10191C00118804B50648806802F063FABDE80440FB
:10192C0002F1280090E8F01F8CF309887047000042
:10193C006402002004ED00E01EF0040F0CBFEFF376
:10194C000880EFF30980816931F8021C11F0FF0166
:10195C000229FFD001B502F035FA01BD38B51B4C98
:10196C0005461B4802F0B5F9A36AD90602D51948F9
:10197C0002F0AFF9A36A1A0702D5174802F0A9F9C9
:10198C00A36A9B070ED5154802F0A3F9616BA36AF5
:10199C00180607D5124802F09CF91DB1A36A23F072
:1019AC008003A362094CA36ADA0702D50D4802F042
:1019BC0090F9A36A9B0602D50B4802F08AF9A36A38
:1019CC00A36A43F0FF03A362002038BD00ED00E0E2
:1019DC00F2490000094A00003D4A0000514A00004B
:1019EC006A4A0000814A0000A14A000038B51E4C2A
:1019FC0005461E4802F06DF9A36AD90402D51C48AD
:101A0C0002F067F9A36A1A0502D51A4802F061F9C7
:101A1C00A36A9B050ED5184802F05BF9A16BA36A6B
:101A2C00180407D5154802F054F91DB1A36A23F424
:101A3C000043A3620C4CA36A590502D5104802F06E
:101A4C0048F9A36ADA0509D50E4802F042F9064AAC
:101A5C00936A43F47F439362002038BDA36A9B04CE
:101A6C00F5D50948F1E700BF00ED00E09148000012
:101A7C00A84800003D4A0000BA480000D4480000C5
:101A8C00EA48000006490000A14A000010B5194CB4
:101A9C00194802F01EF9A36A9A0102D5174802F000
:101AAC0018F9A36ADB0102D5154802F012F9A36AF2
:101ABC00180302D5134802F00CF90E4CA36A590313
:101ACC0002D5114802F005F9A36A9A0302D50F4812
:101ADC0002F0FFF8A36ADB0302D50D4802F0F9F817
:101AEC00044A936A6FEA03436FEA1343936200203C
:101AFC0010BD00BF00ED00E0D14A0000EA4A000032
:101B0C00FE4A0000194B0000384B00005E4B0000F1
:101B1C00794B000038B5274C6368C3F30803DA1E11
:101B2C000546092A3AD8DFE802F005333530393951
:101B3C0039393937204802F0CCF8E36A9A0703D5D3
:101B4C001E4802F0C6F802E0E36A5B0005D40020F0
:101B5C002946BDE8384000F0D1B8194802F0B9F870
:101B6C00184B1B782BB10120FFF7F8FE0628EFD19C
:101B7C0038BD154B1B781BB10120FFF737FFF5E77C
:101B8C00124B1B889BB2002BE1D0FFF77FFFEDE7D8
:101B9C000020E9E70020F0E70D48D2E70D480E4998
:101BAC00A3F110020F2BD8BF01460C4802F091F89C
:101BBC00CDE700BF00ED00E04D4900006549000095
:101BCC008749000028ED00E029ED00E02AED00E057
:101BDC00A74900001F49000034490000DE490000FD
:101BEC00024A536943F010035361704700ED00E063
:101BFC0043B2002B08DB012200F01F0002FA00F0B8
:101C0C005B09024A42F82300704700BF00E100E084
:101C1C0043B2002B0DDB01225B0900F01F0002FA1E
:101C2C0000F02033034A42F82300BFF34F8FBFF379
:101C3C006F8F704700E100E043B2002BA8BF03F1A7
:101C4C00604301F101014FEA4111AEBF03F561435D
:101C5C0000F00F00034BC9B2ACBF83F8001319544A
:101C6C00704700BF14ED00E02DE9F0418C18884658
:101C7C0017461E4604220A9B0999054602F0D8FB1A
:101C8C00A4F120030C4923F00703002221F00101E9
:101C9C00C5E91322C5E91687996106995960079918
:101CAC0099600899D9604FF080711E60D961AB645E
:101CBC006A66BDE8F08100BFF339000001491022CB
:101CCC000A60704710ED00E0404080F3118830BF8F
:101CDC00704700BF404080F31188DFF81CC0DCF86F
:101CEC0000C01CF4006C0CBFEFF30880EFF309800C
:101CFC0001B5FFF70FFF01BD04ED00E038B5044658
:101D0C000D4605281AD8DFE800F00319191315172A
:101D1C000D4801F0DEFF01F0F1F9AA6901460B480C
:101D2C0001F0D7FF29462046BDE8384000F018B82E
:101D3C000748EEE70748ECE70748EAE7014607489B
:101D4C0001F0C7FFE7E700BFA54B0000434C0000C4
:101D5C00C54B0000EB4B0000054C0000204C000074
:101D6C00052810B50CD001F019FA60B101F016FA83
:101D7C000C490D4B002808BF19460C4801F0A9FF6F
:101D8C00FFF7A2FFFCE701F019FA0028EED1084C8E
:101D9C000848A16801F09DFFA068BDE8104000F064
:101DAC000BB800BF7F4C0000834C0000944C00002B
:101DBC0064020020B44C000038B505464FF02003F7
:101DCC00EFF3118483F31188BFF36F8F02F011FBD3
:101DDC000A4B9B68AB420BD1094B5A68C2F3080201
:101DEC0012B92046FFF762FD5A6842F080525A60E1
:101DFC002046BDE8384002F074BA00BF64020020EF
:101E0C0000ED00E001B572B60B4A106A00281EBF47
:101E1C000021116202F033FA62B6EFF30580A0F1F3
:101E2C0010004FEAC0000549014409C99847BDE8B4
:101E3C00014003480047000064020020E044000019
:101E4C008518000001F0C2FF00F004F830BFFFF766
:101E5C00FDBF00BF08B50E4B83F30988EFF3148365
:101E6C0043F0020383F31488BFF36F8F094B0A4AC4
:101E7C0023F07F039360BFF34F8FBFF36F8F00F09E
:101E8C00EBFC00F0F3FCFFF705FD00F021FD00BFBB
:101E9C00001600200000000000ED00E01FB5094B0B
:101EAC000193094B029304A8084B039301AB40F830
:101EBC00103D074A074B012100F076F805B05DF89C
:101ECC0004FB00BF000000200000000000000B0617
:101EDC00000000200000012030B5D1E90043202B88
:101EEC00896817D9B3F1004F16D8013BB3FA83F3C5
:101EFC00C3F11F035B00072841F001010ED824F049
:101F0C001F02084D024342F010020B43A860EA6026
:101F1C002B6130BD0823EEE73E23ECE76FF0150094
:101F2C00F7E700BF90ED00E0034B05225A60BFF3CA
:101F3C004F8FBFF36F8F704790ED00E0BFF35F8F53
:101F4C00014B00225A60704790ED00E0134908687D
:101F5C00082810B51ED8FFF7F1FF114C4968002274
:101F6C00904201F10C0105D10E4B1870FFF7DCFF0C
:101F7C00002010BDA26051F80C3C23F01F0343F06D
:101F8C0010031343E36051F8043C43F00103236155
:101F9C000132E5E74FF0FF30EBE700BF10470000E0
:101FAC0090ED00E0B6080020F8B5104C07462078FC
:101FBC000E460025B54208DA57F825104B6893B148
:101FCC005A1E134203D06FF015002070F8BD1F2B62
:101FDC00F9D90B681A42F6D1C0B2FFF77DFF10F1A8
:101FEC00160FF0D001300135E4E700BFB608002031
:101FFC0070B5104B064618780D460024AC4207DB32
:10200C0010F1160F03D00C4B002207280DDD70BD0C
:10201C0056F824104B6833B1C0B2FFF75DFF10F1D6
:10202C00160FF4D001300134E8E798601A610130E2
:10203C00EBE700BFB608002090ED00E0014B186004
:10204C00704700BF0C16002008B5094B1A786AB906
:10205C000121197006200521FFF7EEFD0620FFF780
:10206C00C7FD044B4FF00042C3F80423002008BD09
:10207C00B7080020006000402DE9F7434A4E356850
:10208C00012D63D1494A93681268DC69D2F8088043
:10209C00D3E902120A40D3E90510014322EA0102F6
:1020AC00D8F800101B69D1F810155C404C4022EA9E
:1020BC0004042F464FF00009002A36D132603368F1
:1020CC000093009B3A4E002301279C46D6F804232C
:1020DC0007FA03F1114214D003F1805202F5C252F7
:1020EC009200116801290CD103F5A27056F820005A
:1020FC00C2F800C012680192C0F304208140019A1A
:10210C000C430133082BE1D114B3284FBB68196879
:10211C00F1B10E688B681C4203D04B6822463846DE
:10212C009847AEB131463668F4E73A420AD098F88F
:10213C00043009F01F00002140EA431001F0C1FEF9
:10214C0022EA070209F101097F00B5E70024B9E78B
:10215C00012D0DD1154B9C681B689F68D4E9023288
:10216C001A40D4E905310B4322EA0302002612B9C6
:10217C0003B0BDE8F083154212D0E169236997F8EA
:10218C0004C04B40F34013F0010F06F01F000CBFCE
:10219C000321022140EA4C1001F093FE22EA0502D1
:1021AC0001366D00E3E700BF7C61004000170020A2
:1021BC0000600040F7B5036886689B6801F01F0457
:1021CC000D464C491B79D1F8042344EA4314D2B28E
:1021DC00002303F5A27051F82000C0F304208442C0
:1021EC006CD122FA03F0C00768D59A0002F1804244
:1021FC0002F5C042D2F8100520F00100C2F810051B
:10220C00012202FA03F3C1F808332046002101F041
:10221C0058FEB068E84010F001004DD0F068E8407E
:10222C0010F0010048D07069E84010F0010251D064
:10223C00B369EB40DB0745D43369F269EB4022FA12
:10224C0005F503F0010305F00105AB420CBF0225B7
:10225C000125284F002101F5A27357F8230010F037
:10226C00030031D18A0002F1804303F5C0432402FC
:10227C00D3F8106526F4473626F44076C3F810657B
:10228C00D3F8106504F4F85402F1804202F5C2420E
:10229C0044EA05453543C3F81055106012680192A5
:1022AC00019AD3F8102542F00102C3F8102501233E
:1022BC0003FA01F1C7F8041303B0F0BD0133082B86
:1022CC0087D1A2E70325C4E701310829C3D16FF0F8
:1022DC001200F1E7F16933694B4023FA05F515F06B
:1022EC00010F20460CBF0321022101F0EAFD10462C
:1022FC00E2E700BF0060004030B5002285B0054623
:10230C0001210420FFF798FC0E4B00930024FF23BF
:10231C00286801948DF806304FF0005302930A4A56
:10232C00806803942B466946FEF73CFE074B9842A7
:10233C0005D1A86801F03DFF204605B030BD6FF017
:10234C000F00FAE710141211FF4100000000AD0B52
:10235C007FB58568EA6B6B6C8AB9002B33D11C4650
:10236C0000221146284601F0FAFE6C6205F11400B9
:10237C0000F0CAFE002385F84C3004B070BD23B3C6
:10238C009342194628BF11460068AC6B80680094D4
:10239C008668B14228BF3146A964C4B1002A18BF6F
:1023AC000A4601922A6C02929AB1002B18BF0B4676
:1023BC00002269460393FEF79DFE074B9842DCD042
:1023CC006FF00404CCE71946DEE71146DCE7224641
:1023DC00E7E71346ECE700BF0000AD0B2DE9F04733
:1023EC0007468068884604304FF0FF311D4616467C
:1023FC0000F0B0FEBC682368984560D0B8F8043093
:10240C0041F60901194040F0AA80C3F34513082B8B
:10241C0040F0A580D8F80020524B9A4240F29F80A1
:10242C003B68D8F80820D3F80890C4F800808AB12B
:10243C00106878B143685268D3F800A00123D047E4
:10244C0022689368B2F90420D243D20FD3E9000179
:10245C0001F07CFEB8F80430D9F80010980703F0AE
:10246C00040259D5002A0CBF02220322022AC3F30C
:10247C00001355D0032A56D0012A01D143F0020390
:10248C00C1F85435384AD8F8003093424ED9374AFF
:10249C0093424ED9364A93424ED9364A93424ED93C
:1024AC00354A93424ED902F5741202F510629342EA
:1024BC008CBF4FF000434FF08043C1F8243501230B
:1024CC0084F84C30002E40D033687268A362E2620C
:1024DC001A685B68A263E363002D3BD02B686A68C3
:1024EC00236362631A685B6822646364002262621D
:1024FC000121204601F033FE3846FFF729FF4FF04B
:10250C00FF3104F1140000F025FE656A201D00F077
:10251C00FBFD2846BDE8F087003218BF0122A5E775
:10252C0043F00403ACE743F00603A9E74FF0007354
:10253C00C3E74FF08063C0E74FF00063BDE74FF097
:10254C008053BAE74FF00053B7E7C4E90A66C4E911
:10255C000E66C1E7C4E90C55C4E91055C6E76FF027
:10256C001505D3E747E801008FD003001FA1070032
:10257C003F420F007F841E00FF083D00034B18688C
:10258C0018B1D3F85C03C3F85C03704724210040F6
:10259C0030B54B79012B20D18B79032B1DD1CC7904
:1025AC002CB1012C19D103689B681B78ABB10A794B
:1025BC0012B1022A11D10E220B6847F61225AB423A
:1025CC006CD027D8B3F5965F61D012D8B3F5167FCF
:1025DC004CD005D8B3F5967F70D06FF0220052E046
:1025EC00B3F5966F50D0B3F5166FF6D14FF41D239B
:1025FC003EE0B3F5615F4CD004D8B3F5165FECD177
:10260C00304B35E0B3F5964F46D0B3F5E14FE4D1FE
:10261C002D4B2DE0B3F5E13F48D011D84DF6C02538
:10262C00AB423ED004D8B3F5164FD6D1274B1FE0A2
:10263C00B3F5614F38D0B3F5963FCED1244B17E0AC
:10264C00B3F5E12F36D008D8B3F5613F30D0214D2A
:10265C00AB42C2D14FF080630AE0B3F5612F2BD0AF
:10266C001D4DAB42B9D14FF0805301E04FF41C33F8
:10267C001A4D2243C5F82435C5F86C25836803C967
:10268C0083E80300002030BD4FF49E23F0E7144B89
:10269C00EEE74FF46C13EBE7124BE9E74FF4000352
:1026AC00E6E74FF46503E3E70F4BE1E70F4BDFE79A
:1026BC000F4BDDE70F4BDBE70F4BD9E74FF4A033A4
:1026CC00D6E700BF0050270000F0750000509D00B9
:1026DC0000903A0190D0030040420F0000200040CF
:1026EC0000B0130000A04E0000F0EB0000E0D7019A
:1026FC0000B0AF0300705F0700D0BE0E084B1A6825
:10270C0082B052B1002018601B680193019B054BED
:10271C00D3F818350B7002B070474FF0FF30FAE762
:10272C000821004000200040094B00221A6082B0B2
:10273C001A680192019A074A01201060C2F8141518
:10274C001A68002AFCD0044B01221A6002B07047B0
:10275C001C210040082000400C2000404FF0A043FA
:10276C00202213B5C3F808250322C3F814270D4CF7
:10277C0081680022C3F82C270B23C4F814350523D9
:10278C00C4F80C35FFF704FF48B90423C4F800352E
:10279C00054B18601B680193019B0123236002B059
:1027AC0010BD00BF0020004008210040094B70B54F
:1027BC0053F820400130002653F82050A54200D891
:1027CC0070BD236820465B68984700B166600C3486
:1027DC00F4E700BF94470000104B70B5104C054651
:1027EC001E469C4204D10E4CB44209D1002412E086
:1027FC0062681AB122681268AA420CD00C34F0E755
:10280C0063680BB90C34EFE723682846196801F0AC
:10281C00FAFA0028F6D1204670BD00BF1817002028
:10282C008816002008B50B4D4FF02002EFF31183F2
:10283C0082F31188BFF36F8F01F018FE012102287B
:10284C000446D8BF084601F021FE2C62FFF73CFA83
:10285C00EAE700BF640200200248034A0021121A72
:10286C0001F00BBB00000020BC08002008B5064896
:10287C00064A0749121A01F0D3FA064A06490748D4
:10288C00BDE8084001F0CCBA00160020401700202B
:10289C00304D000000000000304D00000000002012
:1028AC0008B50220FFF782FF074801F012FA032057
:1028BC00FFF77CFF00F0C8FC00F036FE034A137BE8
:1028CC0023F00103137308BDE14C0000F801002054
:1028DC0080B53D4BA2B083F308883C4B3C4E5A6903
:1028EC003C4D42F400725A610024E02283F822200D
:1028FC00DC771C765C769C765A6A42F4E0225A624B
:10290C00FFF76EF9FFF7DAF907AB21466C22184690
:10291C0001F0B3FA0127B06020468DF82970FFF75B
:10292C0045FF3846FFF742FF00F046FB2A4B756225
:10293C004FF48062CDE90473CDE90244CDE9004443
:10294C00264B2749284600F065FC6B7B23F00402DC
:10295C0013F01B0F6A73344604D1AB6913B92846C4
:10296C0000F0B2F91F4B204E059301220F23CDE945
:10297C00033200234FF4A0721C4900933046CDE97A
:10298C0001331B4B00F046FC737BE66023F0040321
:10299C007373184BC4E90633FFF780FA0D48A56032
:1029AC0001F01FFA0D4B144A184682F3098863B6DE
:1029BC004FF0000181F31188BFF36F8F00210022CB
:1029CC00002301F010F800BF0016002000ED00E01D
:1029DC0064020020F8010020234D0000AD28000007
:1029EC00C0080020284D00008C010020C00C0020E5
:1029FC00312800007C020020C00C002070B50D4670
:102A0C0034498B68DA7B013A0446DA73C2680846AB
:102A1C004AB1A36889688B4212D09DB900F038F98D
:102A2C006FF00F050AE08B6893F90E3023610132C9
:102A3C008368E260A36000F02BF90025284670BD86
:102A4C002369F3E791F90E1093F90E309942A8BF60
:102A5C00194621EAE1714FF02003EFF3118683F35D
:102A6C001188BFF36F8FA06890F90E30994201DA8C
:102A7C0000F054FA2B4622463146174800F03AFA39
:102A8C00054610B900F004F9D8E7236821699C4287
:102A9C0007D033B193F90E309942A8BF194621EAF9
:102AAC00E1714FF02003EFF3118583F31188BFF32D
:102ABC006F8FA06890F90E30994201D000F02EFA79
:102ACC0085F31188BFF36F8F00F0E2F86FF00A0501
:102ADC00B4E700BF64020020B80800201E4B9A68BF
:102AEC00D37B013B70B50446D373C368012B05D06F
:102AFC00013BC360BDE8704000F0CAB84FF0200342
:102B0C00EFF3118683F31188BFF36F8F016980682F
:102B1C0090F90E30994201D000F000FA204601F0F5
:102B2C0030FC0546A06080B1437BDB0603D1836992
:102B3C000BB900F0C9F886F31188BFF36F8F00232F
:102B4C00AB6695F90E302361D4E7E06086F311880B
:102B5C00BFF36F8FCEE700BF64020020EFF3058058
:102B6C000D2809D828B1054B586880F40060C0F3D3
:102B7C00C02080F0010070470120FAE700ED00E072
:102B8C0008B5FEF75BFE054B054A1B68184410613F
:102B9C0000211846BDE8084001F078BC9C020020DA
:102BAC0064020020F8B50D464FF02003EFF31184BA
:102BBC0083F31188BFF36F8F0D4E0E4B4FF4004112
:102BCC000027C1FB006700221A6130464FF4A02297
:102BDC0000233946FDF77CFA074B1860074B1D6044
:102BEC00FFF7CEFF84F31188BFF36F8FF8BD00BFE2
:102BFC00FFFF0400640200209C02002098020020C9
:102C0C004FF02003EFF3118183F31188BFF36F8F23
:102C1C00044B9A68D37B013BD37381F31188BFF3C8
:102C2C006F8F704764020020094B03F12802824227
:102C3C0005D19B688B4202D14B7BDB0607D1D1E9D6
:102C4C0000231A600A6853600023C1E900337047FF
:102C5C006402002038B50D4C024604F1280001F046
:102C6C0059FB054600B9E568A3684AB95A7BD206F8
:102C7C0006D1AA6922B9DA897F2A01D9636238BDE3
:102C8C009D4201D0FFF77CFF6562F8E764020020EB
:102C9C0010B54FF02003EFF3118483F31188BFF3C9
:102CAC006F8F084B9A68D37B0133D3730120FFF7E6
:102CBC00D1FF84F31188BFF36F8FBDE8104001F092
:102CCC001FBB00BF64020020F8B54FF02003EFF3E8
:102CDC00118483F31188BFF36F8F164A114651F894
:102CEC00283F8B420CD05BB1D66A90F90E5093F909
:102CFC000E70AF420BDCB34202D01B68002BF6D136
:102D0C00D36A4360D36A01601860D06205E05A68E8
:102D1C00C0E900325A6810605860437B43F04003AE
:102D2C0043730020FFF796FF84F31188BFF36F8F76
:102D3C00F8BD00BF64020020F8B504464FF0200334
:102D4C00EFF3118683F31188BFF36F8F194F07F1DF
:102D5C00280501462846FFF767FFBB6AAB423A4697
:102D6C000CD05BB1F86A94F90E1093F90E708F4287
:102D7C000BDC834202D01B68002BF6D1D36A636054
:102D8C00D36A25601C60D46205E05968C4E900313F
:102D9C0059680C605C60637B906843F0400363731C
:102DAC00031B58425841FFF755FF86F31188BFF3B8
:102DBC006F8FF8BD640200201449154A8B6810B55A
:102DCC001468A34203D1BDE81040FFF7D9BE00241C
:102DDC001460104A1268BAB1DA897F2A14D80E4AE4
:102DEC0093F90E40126894420EDB0C4A126893421F
:102DFC000AD09A6942B90A69824203DC1846FFF785
:102E0C009BFFE0E7121A0A6110BD00BF64020020AC
:102E1C00940200209C02002098020020AC47000085
:102E2C0038B504464FF02003EFF3118583F3118876
:102E3C00BFF36F8F437B5A0607D501460948FFF74E
:102E4C00F3FE637B23F040036373074B9868031B0B
:102E5C0058425841FFF7FEFE85F31188BFF36F8F80
:102E6C0038BD00BF8C0200206402002070B50446FF
:102E7C000D461646FFF7D4FF637B43F002036373E2
:102E8C00EDB12B68A5609D420CD05BB194F90E207E
:102E9C0093F90E1091420CDC69688B4202D01B68CE
:102EAC00002BF5D16B6863606B6825601C606C60EF
:102EBC0005E05A68C4E900325A6814605C60731CFF
:102ECC0012D00A484FF4004500214FF4A022C5FB54
:102EDC0006010023FDF7FCF80549421C04F118001B
:102EEC00BDE8704000F054BA70BD00BFFFFF040095
:102EFC002D43000010B50C461146064A9068064A50
:102F0C0010601A46FFF7B2FF2046BDE81040FEF7EE
:102F1C00CDBC00BF64020020940200202DE9F843D0
:102F2C0004464FF02003EFF3118983F31188BFF3AC
:102F3C006F8F01F0A6F94EB28046002835D01D4D9A
:102F4C0005F1280721463846FFF76EFEAB6AA673DB
:102F5C00BB422A460AD04BB1E96A93F90E00B04243
:102F6C000BDC994202D01B68002BF6D1D36A63604C
:102F7C00D36A27601C60D46205E05A68C4E9003249
:102F8C005A6814605C600120FFF764FE89F31188B5
:102F9C00BFF36F8FB8F1000F09D0064B9B68DB7B3A
:102FAC002BB9BDE8F84301F0ABB9A673EEE7BDE869
:102FBC00F88300BF64020020044B002103F12802B7
:102FCC00C3E90A220846FFF7EDBD00BF64020020EA
:102FDC00F8B5224C224BA2681B689A4232D04FF0B3
:102FEC002003EFF3118683F31188BFF36F8F04F185
:102FFC002805A1682846FFF717FEA36AA268AB4212
:10300C000CD05BB1E16A92F90E0093F90E70874215
:10301C000BDC994202D01B68002BF6D1E36A53609B
:10302C00E36A15601A60E26205E05968C2E9003192
:10303C0059680A605A600120FFF70CFE86F311886C
:10304C00BFF36F8F4FF02003EFF3118083F31188E0
:10305C00BFF36F8FBDE8F840FEF728BC6402002078
:10306C00AC470000F8B5044618B9FFF7B1FF20468D
:10307C00F8BD1E484FF4004500214FF4A022002358
:10308C00C5FB0401FDF724F8461C01F019FA3418AD
:10309C004FF02003EFF3118783F31188BFF36F8F89
:1030AC00134D144BA8681860FFF7BAFEA8681249B4
:1030BC003246183000F06CF9AA68537B43F01003C9
:1030CC0053733846FEF7F2FB01F0FAF9201A002888
:1030DC0009DD4FF47A716422002380FB0101FDF7B6
:1030EC0047F80446C3E70024C1E700BFFFFF040014
:1030FC0064020020940200202D430000014B9868CC
:10310C00704700BF6402002070B504464FF02003E6
:10311C00EFF3118683F31188BFF36F8F01F031F950
:10312C00054670B1437BDB0603D183690BB9FFF70E
:10313C00CBFD0023AB6631460548BDE8704001F07D
:10314C00C2B8D4E902329A4218BF0133A360F2E745
:10315C00B808002010B402460B464FF02000EFF3E5
:10316C00118180F31188BFF36F8F946844B1013CD7
:10317C00946081F31188BFF36F8F002010BC7047EF
:10318C0033B981F31188BFF36F8F6FF00F00F5E740
:10319C00014810BCFFF7AEBEB8080020EFF3058065
:1031AC000D2807D838B1044B586880F40060C0F380
:1031BC00C02070470120704700ED00E0024B9B6877
:1031CC00187B00F0010070476402002010B5024625
:1031DC004FF02003EFF3118483F31188BFF36F8F4B
:1031EC00437B590704D484F31188BFF36F8F10BD50
:1031FC0023F00403437301F0F1F810B11046FFF70C
:10320C0063FD21460248BDE8104001F05CB800BFE8
:10321C00B808002030B587B004460E9D04950D9D6E
:10322C0003950C9D02950B9D01950A9D0095FEF74B
:10323C001BFD044B9B6813B9236607B030BD1B6E96
:10324C00FAE700BF640200202DE9F04F284E294D0B
:10325C0087B0B046B54205F130040FD3FFF7D0FC70
:10326C00244C254EDFF894A04FF400490027444528
:10327C0021D307B0BDE8F04FFFF70ABD54F8043C6A
:10328C00059354F8103C049354F8143C039354F8ED
:10329C00183C029354F81C3C019354F8203C0093C6
:1032AC0054E90A2354E90C01FFF7B4FF54F8303CFD
:1032BC00DD642546CEE7616A4B1C04D0256821B934
:1032CC002846FFF783FF3034D1E7B346BC46C9FB31
:1032DC0001BC4FF4A022002358466146FCF7F8FECF
:1032EC005146421C05F1180000F052F8EBE700BF04
:1032FC001817002018170020FFFF04002D430000B2
:10330C00034B1B680BB9FEF799BA0020704700BF3E
:10331C00A0020020036840B1084A5268904204D0D1
:10332C001BB19A6881680A449A604268136003680A
:10333C005A600023C0E90033704700BF68160020B4
:10334C0038B5104B1B78002B0F4B1C6814BF4FF07B
:10335C00FF306FF000409C420AD04CB1A568FFF7DB
:10336C00CFFF281A00280ADBA468FFF7C9FF201A30
:10337C00064B1B6913B19842A8BF184638BD0020F4
:10338C00F6E700BFB8080020681600206402002091
:10339C0070B504461646C1604FF02003EFF311855B
:1033AC0083F31188BFF36F8FFFF7AAFF194B1A68CD
:1033BC00012EACBF801901309A42A06001D05E682A
:1033CC0032B95A6862605A68236014605C600BE022
:1033DC009068A168884216DD411A91605168C4E971
:1033EC00002151680C6054601A689A4206D09442CD
:1033FC0004D1FFF7A5FF0021FEF7E6F985F311884C
:10340C00BFF36F8F70BD091A9642A160D9D01268B4
:10341C00D6E700BF681600202DE9F04B0446FFF7F5
:10342C00CBFC4FF02003EFF3118583F31188BFF32E
:10343C006F8F214E214FDFF888903460B846D9F851
:10344C00004032684C45D7E900BC05D024B1A368D4
:10345C00934214DD9B1AA3601BEB02004CEBE27150
:10346C000024C8E900013460FFF76AFF2146FEF72B
:10347C00ABF985F31188BFF36F8FBDE8F08B1BEBB5
:10348C0003004CEBE371D31A33600023C7E900014E
:10349C00A3602046FFF73EFF85F31188BFF36F8FC3
:1034AC00E36898474FF02003EFF3118583F31188FD
:1034BC00BFF36F8FC3E700BFA00200200000002005
:1034CC00681600202DE918484FF02003EFF3118403
:1034DC0083F31188BFF36F8FFEF7B0F9074BD3E975
:1034EC00002312EB000B43F1000C5846614684F3A9
:1034FC001188BFF36F8FBDE8188800BF0000002053
:10350C0038B5074C074DAC4201D3002038BD04F14F
:10351C0014032046C4E9053300F01AFA1C34F2E710
:10352C00181700201817002008B5FCF7A1FFFEE7BC
:10353C0007B5C0B251B960F07F008DF804000120CE
:10354C0001A9FDF7C7FA03B05DF804FB60F03F007A
:10355C007F298DF80400C8B285BF60F07F00C909CF
:10356C008DF805008DF8050092BF02208DF806102D
:10357C000320E5E708B50B4611460244B2F5806F0F
:10358C0005DC821E0920FFF7D3FF002008BD4FF099
:10359C00FF30FBE707B5C0B241B98DF8040001203C
:1035AC0001A9FDF7CBFA03B05DF804FB40F0400035
:1035BC007F298DF80400C8B285BF60F07F00C9096F
:1035CC008DF805008DF8050092BF02208DF80610CD
:1035DC000320E5E713B501AC234680B2042289B27F
:1035EC00FFF7D8FF03230020E25C13F1FF3302EB5B
:1035FC000020F9D202B010BD00210846FFF7EABF47
:10360C0007B5022201AB89B280B2FFF7C3FF9DF868
:10361C0005309DF8040000EB032080B203B05DF888
:10362C0004FB07B502AB89B203F8012D80B201226D
:10363C00FFF77EFF03B05DF804FB07B58DF804209F
:10364C00120A8DF8052001AB022289B280B2FFF775
:10365C006FFF03B05DF804FB07B5130A8DF8042067
:10366C008DF80530130C120E8DF806308DF80720EE
:10367C0001AB042289B280B2FFF75AFF03B05DF8A8
:10368C0004FB08B5024604212D20FFF7D6FF0322C8
:10369C0006212D20FFF7C5FF06212D200022FFF764
:1036AC00C0FF0A212D20BDE80840FFF793BF08B5E5
:1036BC00002202212C20FFF7B4FF022211462C20FD
:1036CC00BDE80840FFF7ADBF10B56D22044640F6CB
:1036DC0006012E20FFF7A5FF44B140F2076241F628
:1036EC0006012E20BDE81040FFF7A7BF41F207628C
:1036FC00F5E713B50222044601AB00213620FFF793
:10370C0049FF0E2C12D8DFE804F020082911111102
:10371C0011303D1111484D52590000238DF80430E1
:10372C009DF8053023F001038DF8053001AB012223
:10373C0000213620FFF7FCFE01220DF10503114696
:10374C003620FFF7F5FE02B010BD9DF8043023F0D3
:10375C00030343F001038DF80430E7E79DF80430D0
:10376C0023F0030343F00203F5E79DF8043023F044
:10377C004C0343F048038DF804309DF8053063F09A
:10378C007F03D1E79DF8043023F04C038DF804300F
:10379C009DF8053003F07F03C6E79DF8053043F034
:1037AC000203C1E79DF8053023F00203BCE79DF846
:1037BC00043023F0300343F02003CCE740F2013314
:1037CC00ADF80430B2E708B50E20FFF792FF4FF4C6
:1037DC00004206212D20FFF730FF012000F093F866
:1037EC000120BDE80840FFF784BF08B50020FFF7B3
:1037FC0080FF002204213620BDE80840FFF71DBFE2
:10380C0000F01F0242F060020E212B20FFF709BFCF
:10381C00FFF728BC80B485B000AF78600023FB6054
:10382C0010E00023BB6002E0BB680133BB60BB68E7
:10383C00012BD4BF01230023DBB2002BF4D1FB6896
:10384C000133FB60FB687A689A428CBF012300232A
:10385C00DBB2002BE5D1002318461437BD4680BCE3
:10386C00704780B582B000AF78607B681846FFF770
:10387C00CFFF00BF0837BD4680BD80B500AF01202B
:10388C00FFF7C8FF002000F005F80220FFF7E9FF62
:10389C0000BF80BD80B483B000AF786000BF0C3730
:1038AC00BD4680BC704780B400AF00BFBD4680BC35
:1038BC00704780B500AFFDF7CBF800BF80BD80B579
:1038CC0000AFFDF7E5F800BF80BD80B500AFFFF796
:1038DC00EAFF80BD80B500AFFFF7E5FF80BD80B487
:1038EC0000AF00231846BD4680BC704710B5FFF7EB
:1038FC00F6FF044608B1FFF7E8FF204610BD08B1FB
:10390C00FFF7E8BF7047FFF7ACBF70B5C66890F91A
:10391C000B000C254D43884206EB0504B4BF7159CE
:10392C002146202492FBF4F401EB8401196002F08F
:10393C001F0070BD07B501ABFFF7E7FF019A01232C
:10394C0003FA00F013680343136003B05DF804FB43
:10395C002DE9F843044643680589006894F80AC0C9
:10396C005D43FF222844E27200214FF00C0E8C457F
:10397C0005DC00252389AB4222DCBDE8F883D4F8B2
:10398C000C80B5FBF3F20EFB01F71F2A08EB0706C0
:10399C00C8BF1F324FEA930306F10409C8BF52098E
:1039AC0003F10303C6E9019923F00303D4BFE172C9
:1039BC0048F8070001F10101C8BF00EB8200D6E70F
:1039CC006268E36820686A4381181E1D86509A68F5
:1039DC004A609A682046116099602A460021FFF7D8
:1039EC00A9FF0135C6E708B50446084611461A4634
:1039FC00A047FFF783FBFEF7DFF90020704770B597
:103A0C0004460D464520A04729465220A04729468A
:103A1C0023465220BDE8704018472DE9F04F89B07D
:103A2C001C464FF0000A531E06460F4603934FF0F8
:103A3C00FF39D046002505E06DB9252800F03D8101
:103A4C003946B047039B13F8010F03930028F3D1B9
:103A5C0009B0BDE8F08F642862D019D839280AD88B
:103A6C00312851D22D283DD030283ED0252808D1E0
:103A7C003946B047DEE7582800F0A880632800F0EC
:103A8C00168139462520B047039B39461878F0E754
:103A9C00702800F0918006D8692841D06C283CD061
:103AAC006828CFD0EDE775286DD017D87328E8D1EA
:103ABC00256804F1040B2B461C4614F8010B002856
:103ACC0040F0EC80B8F1030F40F000815C1BA9EBD7
:103ADC000404002C00F3E6805C46ABE7782875D034
:103AEC007A28DEE74FF00308ACE7B9F1000F0EDAE5
:103AFC00B8F1000F00F0E780A0F13009B8F1000F29
:103B0C0008BF4FF002089DE7B9F1000FF4DB0A2360
:103B1C0003FB0909A9F13009F0E70AF1010A91E761
:103B2C00BAF1000F12D125680434002D05DA39469C
:103B3C002D20B0476D4209F1FF39CDF80090434676
:103B4C002A4639463046FDF73DF873E7BAF1010FC6
:103B5C00E9D0073424F0070303F10804D3E9002368
:103B6C0012F1004043F100014FF0000C4FF0FF3B0D
:103B7C008C4508BF834504D239463046FFF73FFFDA
:103B8C0058E71546D1E7BAF1000F05D12268043485
:103B9C00CDF800904346D4E7BAF1010FF6D00734C4
:103BAC0024F0070303F10804D3E90023002B08BF1A
:103BBC00B2F1004FECD3DFE739463020B04739463D
:103BCC007820B0474FF008094FF00108BAF1010F07
:103BDC0027DC23680793002304930434002310226A
:103BEC00029306939346079B0BF1FF3B4FEA8B0026
:103BFC00C0F1200CA0F1200123FA00F0049B03FA81
:103C0C000CFC40EA0C0023FA01F1084310F00F0001
:103C1C0013D1069B13B9BBF1000F2ED14FF0300C12
:103C2C0011E0073424F0070303F108041A685B68F9
:103C3C0007920493D2E7059AD5E709288CBF4FF079
:103C4C00570C4FF0300C394660440592B047029B3C
:103C5C00069501330293BBF1000FECD1B8F1030FC1
:103C6C007FF4E8AE029BC3EB4905002D7FF7E2AE73
:103C7C0039462020B047013DF7E7531E9145059387
:103C8C00E9DBB8F1010F03D139463020B047E2E748
:103C9C00B8F1020FDFD139462020F7E73946B0479B
:103CAC00234609E739462020B047013C11E720683C
:103CBC00251D3946B0472C46BCE6AA46A8464FF00F
:103CCC00FF390125BEE64FF00108BBE65C46054610
:103CDC00B8E60FB407B504A951F8040B0191FCF731
:103CEC00C7FF03B05DF804EB04B0704770470047A2
:103CFC000369C1688B429DBF8268D21802F1FF3202
:103D0C0003F1FF3394BF501A581A70472DE9F04154
:103D1C00D0E902670446F61B406896428846154671
:103D2C00384405D900F07CF83D44E560BDE8F081ED
:103D3C003246AD1B00F074F82A4608EB06016068A9
:103D4C0000F06EF8F1E72DE9F843C56806468946A0
:103D5C0017464FF000083469B3687068A54228BF55
:103D6C00E418013C621B5C1BBC4228BF3C469442DD
:103D7C0028BF144649462844224600F051F8B3683F
:103D8C002544AB4208BF00253F1BA044A144F5606D
:103D9C00E1D14046BDE8F883FDF770BA08B5FFF7EE
:103DAC00FBFF002008BD08B5002210460121FDF7DD
:103DBC0043FF0020FDF71CFF002008BD7047704733
:103DCC00FDF788BF01460068FDF798BF202383F3F9
:103DDC001188704708B5FEF739F8BDE80840FDF7C3
:103DEC004BBD07B5002101A8FEF702F903B05DF841
:103DFC0004FB0139034611F8012F0AB91A707047F8
:103E0C0003F8012BF7E70138013910F8013F11F8DD
:103E1C00012F934202D1002BF7D11A46981A704702
:103E2C00F0B581EA0004A50703460BD0013B0A4418
:103E3C0091421DD1F0BD002AFCD011F8014B03F8C2
:103E4C00014B013A9C07F6D11D1F0C468F183E1BE7
:103E5C00032E08D894086FF0030505FB0422A40078
:103E6C0023442144E2E754F8046B45F8046FEEE771
:103E7C0011F8014B03F8014FDAE7F0B5C9B203466C
:103E8C009C070FD141EA012444EA04441D469F18C3
:103E9C007E1B032E0CD8940803EB840413449C4221
:103EAC0009D1F0BD002AFCD003F8011B013AE7E769
:103EBC0045F8044BECE704F8011BF0E74FF0FF303A
:103ECC007047800000F1A040D0F8003723F4403355
:103EDC00C0F80037D0F8003743EA0141C0F80017AA
:103EEC00704710B504688068A468C069246801290B
:103EFC0004D15840C4F80405002010BD003320FA4A
:103F0C0002F04FF0010118BF012300F001009140B5
:103F1C00834214BFC4F80815C4F80C15ECE770B54F
:103F2C0004688068A468C0692568D5F81465D5F85C
:103F3C001045D5F8045560406C4034406040012970
:103F4C001CBFD04000F001001860002070BD8368D9
:103F5C00186830B558B10024814213D108685CB997
:103F6C005C681860A14200D158600020086072B9EA
:103F7C00002030BD2846EFE720605868814208BF1A
:103F8C005C60F2E705680446002DF3D13AB11A687B
:103F9C000A60586819600028EAD15960E9E76FF0A7
:103FAC001500E6E72DE9F74F8046856803F470406D
:103FBC00B0F5804F1E464AD02DDCB0F5805F3ED068
:103FCC00B0F5405F3FD068BB06F44077B7F5807F13
:103FDC003FD0A7F500746342634106F0010C4FEA31
:103FEC004C07012947EA0C0718BFD4B247EA002056
:103FFC0040EA830712BFA1464FF01F0900244FF07F
:10400C00A04A4FF0010B06F00203A14523D2002079
:10401C0003B0BDE8F08FB0F5E04F16D005DCB0F57D
:10402C00A04F0ED06FF01500F2E7B0F5404F04D062
:10403C00B0F5504FF6D10720C6E70620C4E70120A3
:10404C00C2E70320C0E70420BEE70520BCE702203E
:10405C00BAE70323C1E7D8F800209268117904F07D
:10406C001F0242EA411202F5E0724AF822700BFA82
:10407C0004F2A968002B25D01143A960696901934A
:10408C00B0064CBF114391436961A96970064CBFDE
:10409C0011439143A961296970074CBF11439143A6
:1040AC002961E96930064CBF0A4321EA0202EA6140
:1040BC0021464046FEF77EF80028A9D10134E4B22F
:1040CC00019BA2E721EA0201D7E701292DE9F04182
:1040DC0018BFD4B28768064612BF25461F25002498
:1040EC004FF00108AC4202D90020BDE8F081FB681A
:1040FC0008FA04F223EA0203FB6021463046FEF77D
:10410C0059F80028F1D10134E4B2EBE701292DE98B
:10411C00F04118BFD4B28768064612BF25461F254A
:10412C0000244FF00108AC4202D90020BDE8F08118
:10413C00FB6808FA04F21343FB6021463046FEF795
:10414C0039F80028F2D10134E4B2ECE7436810B43A
:10415C005C681346A4460A4610BC0021604738B57B
:10416C000468054624B3A36813B3186800B361B19F
:10417C00B4F904205968D20FFFF7E8FF2B689B684D
:10418C009868BDE8384000F032B912B9A2889204A0
:10419C000ED4986800F02BF92A689368B2F90420C1
:1041AC00D243D3E90001D20FBDE83840FFF7CEBFB0
:1041BC0038BD10B5044601220021FFF7D0FFE3689B
:1041CC0023B9201DBDE81040FEF79EBF10BD8068CE
:1041DC0003688B4210B506D190F84C4034B9FFF708
:1041EC00E8FF204610BD6FF01500FBE76FF00F00E5
:1041FC00F8E7037810B4002B37D18B68D86B9A6C26
:10420C0080B182420ED8801AD86310BBD86A0138AC
:10421C00D86210B3986A00F108049C628468C06884
:10422C009C63D863586C80B182420ED8801A586453
:10423C00A8B95A6B013A5A63AAB11A6B02F1080079
:10424C0018639068D26818645A64084610BCFEF76C
:10425C007FB8986B0028E5D010449863E2E7186C9F
:10426C000028F2D002441A64EFE710BC7047826851
:10427C000B4692E8030083E8030000207047FFF729
:10428C009EBD437BDB0603BF8069B0FA80F040091A
:10429C000020704738B504464FF02003EFF311852A
:1042AC0083F31188BFF36F8F01468068FEF7BCFC67
:1042BC00637B23F00203637385F31188BFF36F8F65
:1042CC000023A36038BD08B5FEF748FC20B10846B2
:1042DC00BDE80840FDF7EABA81F31188BFF36F8F90
:1042EC0008BD08B50246FEF739FC20B11046BDE802
:1042FC000840FDF7DBBA82F31188BFF36F8F08BD5E
:10430C004FF02003EFF3118083F31188BFF36F8F0D
:10431C00FFF7E7BF0368984214BF184600207047A8
:10432C0050F8103C70B50446A0F11805CBB14FF015
:10433C002003EFF3118683F31188BFF36F8F2946A7
:10434C0050F8100CFEF770FC14F80B3C23F0020331
:10435C0004F80B3C86F31188BFF36F8F002344F8ED
:10436C00103C14F80B3C23F0140304F80B3C2846C7
:10437C00FFF787FF20B12846BDE87040FEF7A4BCCC
:10438C0070BD38B54FF02003EFF3118283F3118821
:10439C00BFF36F8FFFF7BEFF044682F31188BFF3A4
:1043AC006F8FC8B14FF02003EFF3118583F31188A1
:1043BC00BFF36F8F01468068FEF736FC637B23F0FA
:1043CC000203637385F31188BFF36F8F0023A3601F
:1043DC0004F1180000F034F8204638BD437BDB06AE
:1043EC0003BF8069B0FA80F0400900207047FCF7E9
:1043FC0071BC036D10B5044603B198472046FFF716
:10440C00EDFF38B12046FEF70BFD637B43F008034C
:10441C00637310BD637B9B0702D52046FFF73AFF01
:10442C00A369002BF1D004F1180000F009F8ECE7B7
:10443C000373002342738173C373C0E9063370475F
:10444C0010B54FF02002EFF3118482F31188BFF303
:10445C006F8F03683BB1FEF75DFF002084F311887A
:10446C00BFF36F8F10BD6FF01500F7E710B54FF06D
:10447C002003EFF3118483F31188BFF36F8FFEF7E2
:10448C005FFF84F31188BFF36F8F10BD70B50446C6
:10449C000E464FF02003EFF3118583F31188BFF321
:1044AC006F8FFEF74DFFA04205DD012803DD31467D
:1044BC002046FDF789F985F31188BFF36F8F70BD26
:0A44CC0008B5FEF7FFFF08BD7047BA
:0244D600FFFFE6
:0844D800D4BCFF7F01000000CD
:1044E000000000001516000000000000CD3D000097
:1044F00000000000CD3D000000000000CD3D0000A8
:1045000031120000FB3C000000000000CD3D000027
:10451000000000008520000000000000CD3D0000EC
:1045200000000000CD3D000000000000CD3D000077
:1045300000000000CD3D000000000000CD3D000067
:1045400000000000CD3D000000000000CD3D000057
:1045500000000000CD3D000000000000CD3D000047
:1045600000000000CD3D000000000000F916000032
:1045700000000000CD3D000000000000CD3D000027
:1045800000000000CD3D000000000000CD3D000017
:1045900000000000CD3D000000000000CD3D000007
:1045A00000000000CD3D000000000000CD3D0000F7
:1045B00000000000CD3D000000000000CD3D0000E7
:1045C00000000000CD3D000000000000CD3D0000D7
:1045D00000000000CD3D000000000000CD3D0000C7
:1045E00000000000CD3D000000000000CD3D0000B7
:1045F00000000000CD3D000000000000CD3D0000A7
:1046000000000000CD3D000000000000CD3D000096
:0846100000000000CD3D000098
:104618003C4A00009D0C0000000000003C4A0000DD
:10462800A93D0000000000003C4A00009113000072
:10463800000000003C4A0000AD130000000000002C
:1046480073480000B33D0000000000007D480000F2
:10465800B33D000000000000874800004517000037
:10466800000000003C4A0000591F00000000000044
:10467800D94C00005520000064470000284800007D
:10468800052300006C4700006C4800006927000003
:10469800E04C00003C4A00000D350000000000001E
:0846A800FFFFFFFFFFFFFFFF12
:1046B0000338FDD87047000007A9022570889B8841
:1046C0003C001A3152001A339A001A351D011A376C
:1046D0006B003B31BE003B335E013B3596023B37FE
:1046E00007040009080540080910400808054008AB
:1046F0001D0400081D040008405C0000A05C0400CC
:10470000C06C0800805C0400E03F1E00E07D1E00DD
:1047100002000000184700000000000049480000A7
:104720002400020700000020514800001E000B1169
:10473000651500000000000000000000A11400004A
:104740002D14000000000000B13F0000EF3E00000B
:104750002B3F00005B3F000019410000D7400000E4
:104760000000000000000050000000000040004079
:1047700000000000FF000000E9230000DB41000012
:104780000927000035270000892500009D2500002D
:104790007B42000088160020F4160020001700203D
:1047A0001817002018170020F5FFFFFF8C010020CC
:1047B00087008D00000098599859EA518E421E4595
:1047C000142E0080EA51F4283233E03A703DE03A8A
:1047D000C235842BC2353233C235C235AE47E03ADA
:1047E0005038A23050380A001600010006000100BF
:1047F000020053494D504C452054582076312E33F9
:10480000000A48656C6C6F0A00494E4954204641C5
:10481000494C454400000001020304000540100813
:104820001E265626BEBED8BC5350495F3100436F8A
:10483000756C64206E6F742066696E6420535049F5
:10484000206472697665720A00464C4153485F30B5
:10485000005352414D5F30005465726D696E616C5A
:104860000052545400534547474552005541525455
:104870005F3000434C4F434B5F33324B00434C4F50
:10488000434B5F31364D007379735F636C6F636BBD
:10489000002A2A2A2A2A20425553204641554C54A0
:1048A000202A2A2A2A2A0A002020537461636B696D
:1048B0006E67206572726F720A0020205072656305
:1048C000697365206461746120627573206572721A
:1048D0006F720A0020204246415220416464726592
:1048E00073733A20307825780A002020496D707261
:1048F0006563697365206461746120627573206506
:1049000072726F720A002020496E7374727563743C
:10491000696F6E20627573206572726F720A005241
:104920006573657276656420457863657074696F38
:104930006E20280053707572696F757320696E74EC
:10494000657272757074202849525120002A2A2AF3
:104950002A2A2048415244204641554C54202A2AB4
:104960002A2A2A0A002020427573206661756C7419
:10497000206F6E20766563746F72207461626C655F
:1049800020726561640A0020204661756C742065A0
:104990007363616C6174696F6E2028736565206252
:1049A000656C6F77290A002A2A2A2A2A2044656220
:1049B0007567206D6F6E69746F72206578636570BE
:1049C00074696F6E20286E6F7420696D706C656DF0
:1049D000656E74656429202A2A2A2A2A0A002A2A4E
:1049E0002A2A2A20257320256429202A2A2A2A2ACD
:1049F0000A002A2A2A2A2A204D5055204641554C81
:104A000054202A2A2A2A2A0A002020537461636B20
:104A1000696E67206572726F722028636F6E7465AD
:104A200078742061726561206D69676874206265C1
:104A3000206E6F742076616C6964290A002020550D
:104A40006E737461636B696E67206572726F720A50
:104A500000202044617461204163636573732056B4
:104A6000696F6C6174696F6E0A0020204D4D46417C
:104A70005220416464726573733A20307825780A55
:104A8000002020496E737472756374696F6E2041E3
:104A900063636573732056696F6C6174696F6E0A26
:104AA000002020466C6F6174696E672D706F696EAF
:104AB00074206C617A7920737461746520707265FA
:104AC000736572766174696F6E206572726F720AB7
:104AD000002A2A2A2A2A2055534147452046415573
:104AE0004C54202A2A2A2A2A0A002020446976695E
:104AF00073696F6E206279207A65726F0A002020D8
:104B0000556E616C69676E6564206D656D6F727955
:104B1000206163636573730A0020204E6F20636F0A
:104B200070726F636573736F7220696E73747275E0
:104B30006374696F6E730A002020496C6C6567614D
:104B40006C206C6F6164206F66204558435F52454E
:104B50005455524E20696E746F2050430A00202035
:104B6000496C6C6567616C20757365206F66207495
:104B7000686520455053520A002020417474656DC9
:104B8000707420746F206578656375746520756E28
:104B9000646566696E656420696E737472756374AA
:104BA000696F6E0A002A2A2A2A2A204861726477CD
:104BB00061726520657863657074696F6E202A2A5A
:104BC0002A2A2A0A002A2A2A2A204B65726E656C34
:104BD00020416C6C6F636174696F6E204661696C13
:104BE00075726521202A2A2A2A0A002A2A2A2A2AB4
:104BF000204B65726E656C204F4F505321202A2A3E
:104C00002A2A2A0A002A2A2A2A2A204B65726E6535
:104C10006C2050616E696321202A2A2A2A2A0A0000
:104C20002A2A2A2A20556E6B6E6F776E2046617491
:104C3000616C204572726F7220256421202A2A2A15
:104C40002A0A0043757272656E7420746872656119
:104C500064204944203D2025700A4661756C7469C2
:104C60006E6720696E737472756374696F6E20610C
:104C7000646472657373203D20307825780A00499A
:104C8000535200657373656E7469616C2074687249
:104C900065616400466174616C206661756C7420A6
:104CA000696E20257321205370696E6E696E672EC0
:104CB0002E2E0A00466174616C206661756C74204A
:104CC000696E2074687265616420257021204162DC
:104CD0006F7274696E672E0A004750494F5F30004B
:104CE000002A2A2A2A2A2D3E20426F6F74696E6795
:104CF000205A6570687972204F532076312E3134F6
:104D00002E302D7263312D313531392D6764643584
:104D1000623863376162346636203C2D2A2A2A2A9B
:104D20002A0A006D61696E0069646C65000000000C
:104D300008000020073A00000090D003C93E0000A0
:104D400000000000141600201416002000000000CF
:104D5000010000002416002024160020000000009E
:104D60000100000000000000000000000000000042
:104D70000000000000000000000000000000000033
:104D80000000000000000000000000000000000023
:104D900000C2010000010300681600206816002010
:104DA000050214000909010203008100C500444501
:084DB000434157415645000044
:104DB8001846000000000000000000002446000023
:104DC80000000000000000009C46000000000000F9
:104DD800000000003C460000000000000000000049
:104DE8006C4600000000000000000000484600007B
:104DF8003047000000000000544600003C47000017
:104E08000000000090460000804700006016002067
:104E1800304600000000000000000000604600006E
:104E2800000000000000000078460000484700002D
:104E38006C0100208446000078470000101600200E
:104E480018170020181700200000000000000000BC
:104E58000F0000002C1700202C1700200000000075
:084E6800000000000F00000033
:0400000300001E518A
:00000001FF
