:10000000380D0020611E000069460000F11C000050
:10001000F11C0000F11C0000F11C0000F11C0000AC
:10002000F11C0000F11C0000F11C0000551900003B
:10003000F11C0000F11C0000FD18000051460000FA
:10004000211E0000211E0000211E0000211E0000B4
:10005000211E0000211E0000211E0000211E0000A4
:10006000211E0000211E0000211E0000211E000094
:10007000211E0000211E0000211E0000211E000084
:10008000211E0000211E0000211E0000211E000074
:10009000211E0000211E0000211E0000211E000064
:1000A000211E0000211E0000211E0000211E000054
:1000B000211E0000211E0000211E0000211E000044
:1000C000211E0000211E0000211E0000211E000034
:0C00D000211E0000211E0000211E000067
:1000DC007BB972B90029BEBF00204FF0004106E089
:1000EC0008BF00281CBF6FF000414FF0FF3000F03C
:1000FC00BDB9ADF1080C6DE904CE002909DB002B6C
:10010C001ADB00F04DF8DDF804E0DDE9022304B061
:10011C007047404261EB4101002B1BDB00F040F8C3
:10012C00DDF804E0DDE9022304B0404261EB41015B
:10013C00524263EB43037047524263EB430300F0BC
:10014C002FF8DDF804E0DDE9022304B0404261EB56
:10015C0041017047524263EB430300F021F8DDF894
:10016C0004E0DDE9022304B0524263EB4303704721
:10017C0053B94AB9002908BF00281CBF4FF0FF3102
:10018C004FF0FF3000F072B9ADF1080C6DE904CE00
:10019C0000F006F8DDF804E0DDE9022304B0704756
:1001AC002DE9F047089E04468846002B4BD18A4225
:1001BC00154667D9B2FA82F24AB1C2F1200701FAA8
:1001CC0002F320FA07F7954047EA030894404FEAF8
:1001DC00154E230CB8FBFEF71FFA85FC0EFB178897
:1001EC0043EA084307FB0CF1994209D9EB1807F1D4
:1001FC00FF3080F01B81994240F21881023F2B4462
:10020C005B1AA4B2B3FBFEF00EFB103344EA0344BA
:10021C0000FB0CFCA44509D92C1900F1FF3380F02C
:10022C000781A44540F2048102382C4440EA07407F
:10023C00A4EB0C0400271EB1D4400023C6E90043F4
:10024C003946BDE8F0878B4209D9002E00F0EB80CF
:10025C000027C6E9000138463946BDE8F087B3FAF5
:10026C0083F7002F47D18B4202D3824200F2FA80EF
:10027C00841A61EB030301209846002EE0D0C6E9F6
:10028C000048DDE702B9FFDEB2FA82F2002A40F044
:10029C008F80491B4FEA154E1FFA85F80127B1FBD9
:1002AC00FEFC230C0EFB1C1143EA014308FB0CF172
:1002BC00994207D9EB180CF1FF3002D2994200F2A7
:1002CC00CD808446591AA3B2B1FBFEF00EFB10147C
:1002DC0043EA044408FB00F8A04507D92C1900F1A7
:1002EC00FF3302D2A04500F2B6801846A4EB0804F6
:1002FC0040EA0C409FE7C7F1200CBB4022FA0CFEF1
:10030C004EEA030E01FA07F420FA0CF521FA0CF36D
:10031C004FEA1E482543B3FBF8F92C0C08FB1933A4
:10032C001FFA8EFA44EA034309FB0AF49C4202FAD0
:10033C0007F200FA07F10BD91EEB030309F1FF30AA
:10034C0080F087809C4240F28480A9F102097344BA
:10035C001B1BADB2B3FBF8F008FB103345EA0344AA
:10036C0000FB0AFAA24508D91EEB040400F1FF3386
:10037C006BD2A24569D90238744440EA0940A0FB0B
:10038C000289A4EB0A044C45C2464B4654D351D0C7
:10039C00002E69D0B1EB0A0564EB030404FA0CFCE3
:1003AC00FD40FC404CEA0505C6E90054002747E730
:1003BC00C2F1200320FA03F7954001FA02F021FA6A
:1003CC0003F34FEA154E3843010CB3FBFEF71FFA4B
:1003DC0085F80EFB173341EA034107FB08F38B4208
:1003EC0004FA02F407D9691807F1FF3C2FD28B42AB
:1003FC002DD9023F2944CB1A81B2B3FBFEF00EFB80
:10040C00103341EA034100FB08F38B4207D969180A
:10041C0000F1FF3C17D28B4215D902382944C91A76
:10042C0040EA07473BE73746304609E70746E7E629
:10043C001846FBE64145ABD2B8EB020A69EB0E025B
:10044C0001381346A4E76046E9E7184695E7674686
:10045C00D1E781467CE702382C4447E7ACF1020C2B
:10046C002B442FE7384608E73746E9E6704700BFCC
:10047C007FB5284804F071F810220021684604F07A
:10048C0065F900F0A7FA03F03CFE03F056FE0020DD
:10049C0000F0DCF9013003D11F4804F05EF8FEE7F0
:1004AC0003F051FE1D481E4C1E4E00F041F8012079
:1004BC0000F040F9002500231D5501337F2BFBD1A3
:1004CC00002003F0BAFD00210F2003F082FC304223
:1004DC00F9D010F480411AD00021102003F079FCDF
:1004EC00C0F309017F2903D80022204603F068FCE1
:1004FC0022460D49684602F095F9684604F02DF83D
:10050C004FF4804200210F2003F0B2FCD3E7074ADE
:10051C00F9E700BFF251000001520000E81600207C
:10052C00A402002000D005240D52000000900524E8
:10053C002DE9F843067847784279724B013F042E37
:10054C00044633F81280FFB200F0BE80F31FD3F1E3
:10055C00000949EB03096C4DE1792B681A690029F4
:10056C0040F0B58042F480021A614FEAD808217A33
:10057C001A699972090401F4403122F440320A4399
:10058C001A610021042003F073FC424642F6040178
:10059C002E2003F05EFC384603F0A2FC5B4B13F8F4
:1005AC0006805B4B072153F828202B2003F060FCBE
:1005BC00584B0B2113F808202B2003F03EFC564B14
:1005CC000B2113F80920282003F037FC534B0C2186
:1005DC0053F82820282003F04BFCE279A37903EB95
:1005EC0042034F4A022132F81320272003F031FC3A
:1005FC004C4B042133F81720272003F02AFCE37915
:10060C00002B68D164220621272003F022FCE3781A
:10061C00454A03EB8703082152F82320272003F0D7
:10062C0027FC638913B941F241036381DFF8008130
:10063C0062892021272008EB470703F00AFCD8F831
:10064C0000200C21232003F013FC2320BA88042162
:10065C0003F0FFFBA079002852D0E379334A212024
:10066C00D25C002103F0E9FB01220320617906F042
:10067C000F0343EAC1636178890401F440210B4301
:10068C002179890501F0F86136010B43F6B2334349
:10069C0043EA005343EA424200211F2003F0E8FBE7
:1006AC00A27863781343E279520342EA03422B683F
:1006BC000021DA60082003F0DBFB422200210D2030
:1006CC00BDE8F84303F0B9BB4FF0010943E722F44E
:1006DC0080021A614BE7A378042B0AD11022062161
:1006EC00272003F0B6FB10222621272003F0A5FBC0
:1006FC008DE720220621272003F0ABFB2822F3E70D
:10070C000246B3E7B4510000781600201F520000D7
:10071C00E05000002A52000030520000F850000057
:10072C00E6510000B0510000C050000027520000FC
:10073C00B850000038B510F00105044629D000214E
:10074C00262003F046FB20F4705242F4A052002104
:10075C00262003F08DFB0021362003F03AFB00210C
:10076C0040F40402362003F083FB14F002040E4A1A
:10077C004FF0280108BF4FF48872362003F078FB45
:10078C0084B14FF4887228213620BDE8384003F03C
:10079C006FBB2946262003F01CFB294620F470521F
:1007AC002620F2E738BD00BF10010F0038B500213C
:1007BC000E2003F00EFB054603F0DCFC0022114674
:1007CC0004460E2003F054FB402200210D2003F0C0
:1007DC0034FB0A4A00210F2003F04AFB03F01CFCF7
:1007EC002A4600210E2003F043FB204603F0CBFCED
:1007FC00034B1B6800225A7538BD00BFF8FF272435
:10080C007816002008B503F0FCFB002211462C20C2
:10081C0003F01FFB002206212C2003F00EFB03F03B
:10082C0052FB00220321362003F007FB012003F0CA
:10083C00AEFCF0220321362003F0FFFA024B1B68BA
:10084C0000225A7508BD00BF78160020F8B55F4C21
:10085C00236800225A61C3E90A22C3E90C22054627
:10086C0003F0C9FA5A4B984240F0A88015F00206E2
:10087C0040F0A780FFF7C6FF002003F046FB0422E0
:10088C000021242003F0D9FAFEB9042003F005FB63
:10089C0010F0FF0F09D0022212212D2003F0CDFA07
:1008AC002268D38A43F48053D3821E2003F0F5FAD6
:1008BC0080B210F01F0F23684FEA102208BF1020DF
:1008CC00DA72C0B203F0E0FB1AE03021282003F00A
:1008DC0080FAB0F1883F04D02268D38A43F4805365
:1008EC00D38205F00A030A2B07D11E2003F0D5FA98
:1008FC002368C0F30720D87202E023680022DA7262
:10090C0015F01003276827D0062003F0C6FA3860CC
:10091C0015F02003276821D0072003F0BEFA786079
:10092C0015F040021CD0082003F0B7FA23681872A7
:10093C0015F0800217D0092003F0AFFA2368587223
:10094C00002E38D1EA0711D503F049FB2268D38A6F
:10095C0043F40063D38214E03B60D9E77B60DFE7AC
:10096C0023681A72E4E723685A72E9E705213620F6
:10097C0003F045FA4FF6FF5202400521362003F0F2
:10098C0068FA012003F0C1FA00220A212C2003F09E
:10099C0054FA00210420256803F01BFA246828610E
:1009AC00638A03F00303A3720021082003F011FAF9
:1009BC00E0600020F8BD6B07E3D4C7E74FF0FF30D1
:1009CC00F8E715F0F80F3FF457AF58E7781600200A
:1009DC003001CADE38B5174C174B1848236002F0AB
:1009EC0001FB174B186028B9164803F0B6FD4FF001
:1009FC00FF3038BD2368144D144C4FF480729A802C
:100A0C00134A1A600021FF22284603F09FFEFF22A2
:100A1C000021204603F09AFE0E4B0F490F4A1D6031
:100A2C009C600B600833136001234B605360002003
:100A3C00DFE700BF5C0000206000002032520000A5
:100A4C00580000203852000022040020230300200C
:100A5C0080841E00400000209000002050000020E8
:100A6C0008B50A4A0A4B13604FF480729A80094AFF
:100A7C001A600021FF22084803F068FEFF220021C3
:100A8C000648BDE8084003F061BE00BF5C000020D2
:100A9C006000002080841E0022040020230300201C
:100AAC0008B50B4B0B4A0C4803F10C0111604FF4C9
:100ABC0080721A82094ADA600021FF2203F046FE96
:100ACC00FF2200210648BDE8084003F03FBE00BFEE
:100ADC00600000205C0000202204002000127A003C
:100AEC00230300202DE9F843984615460446894611
:100AFC0003F040FB0F4E074622464946304603F0B2
:100B0C00F8FD2A464146301903F0F3FD0A4B0B4918
:100B1C000B4A09682C445C60DC600A4B186843681B
:100B2C001C68094BA047384603F02DFB0020BDE89C
:100B3C00F88300BF22040020400000205C0000204D
:100B4C009000002058000020500000202DE9F047B4
:100B5C009946044616468A4603F00CFB124FA5191B
:100B6C0080462A460021384603F0F0FD22465146C5
:100B7C00384603F0BEFD0D4B0D495D60DD600D4B3D
:100B8C000D4A1868096843681D680C4BA8470C4946
:100B9C0032462144484603F0ACFD404603F0F3FADC
:100BAC000020BDE8F08700BF220400204000002098
:100BBC005C00002058000020900000205000002015
:100BCC00230300200B6801330B60014B1B68184793
:100BDC007C1600202DE9F04F85B09B460E9CDFF86B
:100BEC0090A0012CB8BF0124012B0CBF3023202373
:100BFC001546804689460194029301260A27002255
:100C0C000AF101040AB9AA451FD2B5FBF4F0494612
:100C1C003030C04701360122013F012FB5FBF4F102
:100C2C004FF00A0304FB1155BAFBF3FAE8D149461D
:100C3C0005F13000C047BBF1030F03D1019B9C1B96
:100C4C00002C0FDC05B0BDE8F08F019BBB42E3DB51
:100C5C00BBF1020FE0D84946029803920136C04717
:100C6C00039AD9E749462020C047013CE8E700BF7A
:100C7C00FFC99A3B014B1860704700BF7C160020DF
:100C8C0013B502AC002344F8043D02460B4603485E
:100C9C00214603F006FB02B010BD00BFD10B0000D3
:100CAC0010B54FF02003EFF3118483F31188BFF3D9
:100CBC006F8F00F05BF8094A0123C2F840354FF002
:100CCC008042C2F87835064B4FF0FF329A62DA62F6
:100CDC0084F31188BFF36F8F002010BD00E001403A
:100CEC0000ED00E020B1034B800143F001031847F5
:100CFC00704700BFB05000000C4B1B78062B10D176
:100D0C000B4B1B681A070CD10A4B186800F0F00348
:100D1C00302B08D000F0E000A0F1400358425841BD
:100D2C007047002070470120704700BFE00F00F0B3
:100D3C00E40F00F0E80F00F0094B1B78062B0CD1E8
:100D4C00084B1B681A0708D1074B186800F0F00015
:100D5C00A0F130035842584170470020704700BF43
:100D6C00E00F00F0E40F00F0E80F00F008B5FFF71B
:100D7C00C3FF28B1784B794A1B68C3F30423136073
:100D8C00FFF7DAFF10B1764B764A1A60FFF7B4FF23
:100D9C0028B1754B754A1B68C3F342331360FFF7D8
:100DAC00CBFF20B1724AD36823F08073D360FFF776
:100DBC00A3FF40B14FF080430022C3F80C21C3F8CD
:100DCC001021C3F83825FFF7B7FF10B1694B032288
:100DDC001A60FFF7B1FF40B1674B05221A60012280
:100DEC009A6700229A603F225A60644B1B78062B4C
:100DFC0050D1634B1B6819074CD1624B1B6803F035
:100E0C00F003502B46D14FF080525F4BD2F80414B4
:100E1C00C3F82015D2F80814C3F82415D2F80C1412
:100E2C00C3F82815D2F81014C3F82C15D2F81414E2
:100E3C00C3F83015D2F81814C3F83415D2F81C14B2
:100E4C00C3F84015D2F82014C3F84415D2F8241472
:100E5C00C3F84815D2F82814C3F84C15D2F82C1442
:100E6C00C3F85015D2F83014C3F85415D2F8341412
:100E7C00C3F86015D2F83814C3F86415D2F83C14D2
:100E8C00C3F86815D2F84014C3F86C15D2F8442492
:100E9C00C3F87025FFF730FF28B13C4B3C4A1B6868
:100EAC0003F04F031360FFF727FF48B14FF0804367
:100EBC00D3F80024D20744BF6FF00102C3F800241A
:100ECC00344B1B68062B08D1334B1B68062B01BF18
:100EDC00324A136843F4806313604FF01023D3F845
:100EEC000022002A03DBD3F80432002B2FDA2C4B20
:100EFC000122C3F80425D3F80024002AFBD04FF0BC
:100F0C0010221521C2F80012D3F80024002AFBD0BD
:100F1C004FF010231522C3F80422214B1A46D3F8A4
:100F2C0000140029FBD00021C3F80415D2F80034BA
:100F3C00002BFBD0BFF34F8F1A491B4BCA6802F42E
:100F4C00E0621343CB60BFF34F8F00BFFDE7174B3D
:100F5C00174A1A6008BD00BF240300104035014039
:100F6C0074C007400DF0ADBA440200103C050040BF
:100F7C00F0ED00E0A005004010560040E00F00F03E
:100F8C00E40F00F0E80F00F000C000405802001021
:100F9C00E40E004030010010340100103C170040FA
:100FAC0000E0014000ED00E00400FA05801600208E
:100FBC000090D0032DE9F04704794F4D944624223C
:100FCC006243AE18377F002F40F09380006845F8DD
:100FDC0002C0736091F800E00F7B4FF0A046012334
:100FEC0003FA0EF3012F94BFC6F80C35C6F808357A
:100FFC000EF5E073012246F823204B78FF2B1FBF20
:10100C009A40C6F80C2503F5E0724FF0030818BFA0
:10101C0046F822808E7808BF4FF0FF33FF2E1FBF9B
:10102C0006F5E0724FF0A0494FF0040A49F822A0EF
:10103C004FF0240202FB045218BFB04682F8206025
:10104C00CE78D67708BF4FF0FF38FF2E14D091F82A
:10105C0004900122B2404FF0A04AB9F1000F3FD0EA
:10106C00CAF80C2506F5E07603224AF8262024223D
:10107C0002FB045282F81E90C0F808E5C0F80C354B
:10108C008B68C0F81085C0F824354B7B003318BF33
:10109C000123022F27D0032F28D0012F01D143F099
:1010AC000203C0F854358B79C0F8C035BCF1000F81
:1010BC0002D04023C0F804330723C0F80035BCF13C
:1010CC00000F03D040F3073000F09AFD242303FBFC
:1010DC00045400236377094801232377BDE8F08784
:1010EC00CAF80825BEE743F00403DAE743F0060329
:1010FC00D7E70348F2E700BF980000200000AD0BD3
:10110C000500AD0B2DE9F3410479464D24236343CF
:10111C001746EA180E46517F804600297FD1EB58BE
:10112C0023B117F0140F04BF0123537796E80F0077
:10113C004FF0240C0CFB045C0CF10C0E8EE80F0031
:10114C009CF81F20FF2A08D09CF81E100123934006
:10115C004FF0A042C1B1C2F80835316821B101F09D
:10116C006043B3F1005F06D1B26882B102F0604314
:10117C00B3F1005F0BD0242303FB04542A48002353
:10118C00637702B0BDE8F081C2F80C35E5E7D8F81A
:10119C0000307068C3F84415C3F84805F168C3F80B
:1011AC0034250022C3F83815C3F81821D3F81821B8
:1011BC000192019A17F0010218BF0122C3F85025C1
:1011CC0017F0020218BF0122C3F840253A075CBF92
:1011DC0001221A6124226243AA58B2B9D3F8182109
:1011EC00002AFBD0242303FB0454E27FFF2A07D000
:1011FC00A17F012393404FF0A04219B1C2F80C35E6
:10120C000A48BEE7C2F80835FAE717F0040F4FF0AA
:10121C00400214BFC3F80823C3F80423F0E70448C2
:10122C00AFE700BF980000200A00AD0B0000AD0B2B
:10123C000B00AD0B4FF0402382B0D3F81831E3B163
:10124C000F4B00221A601B680193019B0D4BD97F39
:10125C00FF2907D0987F01228A404FF0A04148B166
:10126C00C1F80C2500225A771A72D3E900210648DE
:10127C0002B01047C1F80825F4E702B0704700BF70
:10128C001841004098000020A000002010B5114C1F
:10129C00114AA2610323C4E90433104BE3612266B3
:1012AC004FF480630E4A23626266002310220D49BC
:1012BC00A362E01D6362E3622367E3666367A26671
:1012CC0003F0DBF90849204603F0D7F92023A3717A
:1012DC0010BD00BFBC000020625200003105002090
:1012EC00210500206B5200006F520000F8B5184C1D
:1012FC00182300FB033503FB00402544C46A012C72
:10130C000F46164611D003D3022C1BD000240AE042
:10131C00284603F031F9864205D83246394628462C
:10132C0003F038F934462046F8BD284603F024F97A
:10133C008642344628BF044622463946284603F0E6
:10134C0029F9F0E72846BDE8F84003F040B900BFA2
:10135C00BC0000200A2838B50446074D04D1286883
:10136C0043680D215B68984728684368E1B25B6865
:10137C009847204638BD00BF6401002010B5044CCE
:10138C00204601F049FA2046BDE81040FFF772BC38
:10139C006113000008B5044801F024FE034B1860EB
:1013AC00FFF7ECFF002008BD76520000640100201E
:1013BC0010B5044C2046FFF75DFC204601F02CFADA
:1013CC00002010BDD51300002DE9F341164F174D29
:1013DC008DF80700064603244FF0FF31384601F024
:1013EC0013FF01220DF107010020FFF77FFF80465C
:1013FC00384601F079FFB8F1000F05D001232B70AE
:10140C00304602B0BDE8F0812B78002BF8D0013CBF
:10141C0007D002F0C9FA0028DED1022002F028FA27
:10142C00DAE72C70ECE700BF981700203109002098
:10143C0010B54FF02003EFF3118283F31188BFF343
:10144C006F8F154C237833B982F31188BFF36F8FEC
:10145C006FF0440010BD013BDBB2237033B182F35B
:10146C001188BFF36F8F6FF00F00F3E70B4B1878F9
:10147C00012138B1217082F31188BFF36F8F6FF0A7
:10148C000A00E7E7197082F31188BFF36F8F044AE3
:10149C0011601870DEE700BF34090020330900200A
:1014AC0004000040F8B54FF02002EFF3118382F3F3
:1014BC001188BFF36F8F294A1078441C147080B1C7
:1014CC0083F31188BFF36F8F4FF08043D3F80C3444
:1014DC0003F00113B3F1011F0CBF00206FF04300A8
:1014EC0009E01F4D2F783FB1107083F31188BFF3C3
:1014FC006F8F6FF00A00F8BD01262E7083F31188F0
:10150C00BFF36F8F4FF0804419B3384600F088FB5F
:10151C00C4F80071D4F80433C4F804632660D4F81A
:10152C00002192B10022C4F800210E4A13F0010FE1
:10153C004FF0010308BFC4F808330020C2F8803113
:10154C0000F05EFB00232B70BEE720BF40BF20BF26
:10155C00E5E7C4F800112660F4E700BF3409002069
:10156C003309002000E100E070B54FF02002EFF3EA
:10157C00118382F31188BFF36F8F244D2A789AB1AF
:10158C0083F31188BFF36F8F4FF08042D2F81C3475
:10159C00D2F8182403F0030343F48033934314BFAD
:1015AC006FF04300002070BD01242C7083F3118870
:1015BC00BFF36F8F4FF08043154EC3F80421022503
:1015CC00C3F81815C3F8045311F0030134604FF03D
:1015DC001806C3F80863C3F80C21C3F81021D3D143
:1015EC001022C3F83825C3F80463D3F81824D203A7
:1015FC0002D4C3F80453C7E7C3F80443FFF752FF00
:10160C000028C1D1034BC3F80041BDE732090020CB
:10161C000800004000E100E0F8B54FF080430546BB
:10162C00D3F808C1D3F80423D3F80071D3F804031A
:10163C00D3F80461D3F80C11D3F81041003402F044
:10164C00010218BF0124BCF1000F03D04FF0000CB5
:10165C00C3F808C1002F41D04FF080430027C3F8D6
:10166C00007152B14FF08043224F01224FF0020C17
:10167C00C3F80823C7F800C01A61EEB959B11D4B65
:10168C004FF08046002119602846C6F80C11FFF770
:10169C00CFFE0123736174B14FF08043002101240C
:1016AC00C3F810112846C3F80443FFF7FBFE10B92A
:1016BC00114BC3F80041F8BD4FF080430022C3F832
:1016CC0004218207DAD50222C3F80823D3F81C348C
:1016DC009B07D3D10029DFD00124D0E7002ACCD03E
:1016EC004FF08043D3F80C3403F00113B3F1011F16
:1016FC00C3D1B7E7340C004000E100E0104B0022EE
:10170C0010B4C3F840214FF02002EFF3118482F3A0
:10171C001188BFF36F8F0B4AD3F80405116840F2A0
:10172C004713401A20F07F40B0FBF3F003FB00138B
:10173C00136084F31188BFF36F8F10BC02F072BA80
:10174C00001001406801002037B51F4801F04AFC29
:10175C00002835D043681D4D1B6801219847002493
:10176C0040F24713C5F80845C5F840354FF48033AF
:10177C00C5F84433C5F8043303F1804303F58A53A9
:10178C004FF400321C601B680193019B104B01212C
:10179C00C3F880211120224600F056FA112000F0E7
:1017AC002FFA0C4A012313602B60D5F8043503F291
:1017BC00471323F07F43C5F84035204603B030BDB6
:1017CC004FF0FF30FAE700BF7D52000000100140DF
:1017DC0000E100E0081001404CF6690270B5B0F170
:1017EC00FF3F08BF10464FF02003EFF3118483F343
:1017FC001188BFF36F8F1349134DD1F804352E6840
:10180C0001389042A8BF10469A1B22F07F4240F24A
:10181C00471502F5A37220EAE07005FB0020B0FB2F
:10182C00F5F005FB0060C31A23F07F431F2B98BF14
:10183C00401920F07F40C1F8400584F31188BFF3B4
:10184C006F8F70BD00100140680100204FF0200226
:10185C00EFF3118382F31188BFF36F8F084AD2F82C
:10186C000405084A1268801A20F07F4040F24712A3
:10187C00B0FBF2F083F31188BFF36F8F704700BF9A
:10188C00001001406801002004488168406A8842C9
:10189C0003D003494FF080520A6070476402002065
:1018AC0004ED00E0044800232021C2180133272B4B
:1018BC0082F80013F9D1704700E100E0094A0A49A7
:1018CC00936809689966094958664B6843F08053D8
:1018DC004B60002383F31188BFF36F8F9368986E6E
:1018EC00704700BF64020020A851000000ED00E02A
:1018FC00202080F31188BFF36F8F11498A684FF055
:10190C0028001044EFF3098C80E8F01F0D4F4FF0C6
:10191C0000664A6A8A603E60506E0023536680F30C
:10192C00118804B50648806802F09FFEBDE80440AB
:10193C0002F1280090E8F01F8CF309887047000032
:10194C006402002004ED00E01EF0040F0CBFEFF366
:10195C000880EFF30980816931F8021C11F0FF0156
:10196C000229FFD001B502F071FE01BD38B51B4C48
:10197C0005461B4802F0F1FDA36AD90602D51948A9
:10198C0002F0EBFDA36A1A0702D5174802F0E5FD39
:10199C00A36A9B070ED5154802F0DFFD616BA36AA5
:1019AC00180607D5124802F0D8FD1DB1A36A23F022
:1019BC008003A362094CA36ADA0702D50D4802F032
:1019CC00CCFDA36A9B0602D50B4802F0C6FDA36AA8
:1019DC00A36A43F0FF03A362002038BD00ED00E0D2
:1019EC00FC53000013540000475400005B540000EB
:1019FC00745400008B540000AB54000038B51E4CDE
:101A0C0005461E4802F0A9FDA36AD90402D51C485C
:101A1C0002F0A3FDA36A1A0502D51A4802F09DFD37
:101A2C00A36A9B050ED5184802F097FDA16BA36A1B
:101A3C00180407D5154802F090FD1DB1A36A23F4D4
:101A4C000043A3620C4CA36A590502D5104802F05E
:101A5C0084FDA36ADA0509D50E4802F07EFD064A1C
:101A6C00936A43F47F439362002038BDA36A9B04BE
:101A7C00F5D50948F1E700BF00ED00E09B520000EE
:101A8C00B252000047540000C4520000DE52000065
:101A9C00F452000010530000AB54000010B5194C68
:101AAC00194802F05AFDA36A9A0102D5174802F0B0
:101ABC0054FDA36ADB0102D5154802F04EFDA36A62
:101ACC00180302D5134802F048FD0E4CA36A5903C3
:101ADC0002D5114802F041FDA36A9A0302D50F48C2
:101AEC0002F03BFDA36ADB0302D50D4802F035FD85
:101AFC00044A936A6FEA03436FEA1343936200202C
:101B0C0010BD00BF00ED00E0DB540000F4540000F9
:101B1C000855000023550000425500006855000090
:101B2C008355000038B5274C6368C3F30803DA1EED
:101B3C000546092A3AD8DFE802F005333530393941
:101B4C0039393937204802F008FDE36A9A0703D582
:101B5C001E4802F002FD02E0E36A5B0005D400209F
:101B6C002946BDE8384000F0D1B8194802F0F5FC20
:101B7C00184B1B782BB10120FFF7F8FE0628EFD18C
:101B8C0038BD154B1B781BB10120FFF737FFF5E76C
:101B9C00124B1B889BB2002BE1D0FFF77FFFEDE7C8
:101BAC000020E9E70020F0E70D48D2E70D480E4988
:101BBC00A3F110020F2BD8BF01460C4802F0CDFC4C
:101BCC00CDE700BF00ED00E0575300006F5300005D
:101BDC009153000028ED00E029ED00E02AED00E033
:101BEC00B1530000295300003E530000E85300009D
:101BFC00024A536943F010035361704700ED00E053
:101C0C0043B2002B08DB012200F01F0002FA00F0A7
:101C1C005B09024A42F82300704700BF00E100E074
:101C2C0043B2002B0DDB01225B0900F01F0002FA0E
:101C3C0000F02033034A42F82300BFF34F8FBFF369
:101C4C006F8F704700E100E043B2002BA8BF03F197
:101C5C00604301F101014FEA4111AEBF03F561434D
:101C6C0000F00F00034BC9B2ACBF83F8001319543A
:101C7C00704700BF14ED00E02DE9F0418C18884648
:101C8C0017461E4604220A9B0999054603F0CEF816
:101C9C00A4F120030C4923F00703002221F00101D9
:101CAC00C5E91322C5E91687996106995960079908
:101CBC0099600899D9604FF080711E60D961AB644E
:101CCC006A66BDE8F08100BF7B420000014910222A
:101CDC000A60704710ED00E0404080F3118830BF7F
:101CEC00704700BF404080F31188DFF81CC0DCF85F
:101CFC0000C01CF4006C0CBFEFF30880EFF30980FC
:101D0C0001B5FFF70FFF01BD04ED00E038B5044647
:101D1C000D4605281AD8DFE800F00319191315171A
:101D2C000D4802F01AFC01F0EFFDAA6901460B48C0
:101D3C0002F013FC29462046BDE8384000F018B8E4
:101D4C000748EEE70748ECE70748EAE7014607488B
:101D5C0002F003FCE7E700BFAF5500004D56000052
:101D6C00CF550000F55500000F5600002A56000014
:101D7C00052810B50CD001F017FE60B101F014FE6F
:101D8C000C490D4B002808BF19460C4802F0E5FB26
:101D9C00FFF7A2FFFCE701F017FE0028EED1084C7C
:101DAC000848A16802F0D9FBA068BDE8104000F01B
:101DBC000BB800BF895600008D5600009E560000DF
:101DCC0064020020BE56000038B505464FF02003D3
:101DDC00EFF3118483F31188BFF36F8F03F007F8CF
:101DEC000A4B9B68AB420BD1094B5A68C2F30802F1
:101DFC0012B92046FFF762FD5A6842F080525A60D1
:101E0C002046BDE8384002F06ABF00BF64020020E3
:101E1C0000ED00E001B572B60B4A106A00281EBF37
:101E2C000021116202F029FF62B6EFF30580A0F1E8
:101E3C0010004FEAC0000549014409C99847BDE8A4
:101E4C00014003480047000064020020DC4E000003
:101E5C009518000002F0FEFB00F004F830BFFFF70D
:101E6C00FDBF00BF08B50E4B83F30988EFF3148355
:101E7C0043F0020383F31488BFF36F8F094B0A4AB4
:101E8C0023F07F039360BFF34F8FBFF36F8F01F08D
:101E9C00E9F801F0F1F8FFF705FD01F01FF900BFBB
:101EAC00781600200000000000ED00E01FB5094B83
:101EBC000193094B029304A8084B039301AB40F820
:101ECC00103D074A074B012100F076F805B05DF88C
:101EDC0004FB00BF000000200000000000000B0607
:101EEC00000000200000012030B5D1E90043202B78
:101EFC00896817D9B3F1004F16D8013BB3FA83F3B5
:101F0C00C3F11F035B00072841F001010ED824F038
:101F1C001F02084D024342F010020B43A860EA6016
:101F2C002B6130BD0823EEE73E23ECE76FF0150084
:101F3C00F7E700BF90ED00E0034B05225A60BFF3BA
:101F4C004F8FBFF36F8F704790ED00E0BFF35F8F43
:101F5C00014B00225A60704790ED00E0134908686D
:101F6C00082810B51ED8FFF7F1FF114C4968002264
:101F7C00904201F10C0105D10E4B1870FFF7DCFFFC
:101F8C00002010BDA26051F80C3C23F01F0343F05D
:101F9C0010031343E36051F8043C43F00103236145
:101FAC000132E5E74FF0FF30EBE700BF10510000C6
:101FBC0090ED00E035090020F8B5104C074620786C
:101FCC000E460025B54208DA57F825104B6893B138
:101FDC005A1E134203D06FF015002070F8BD1F2B52
:101FEC00F9D90B681A42F6D1C0B2FFF77DFF10F198
:101FFC00160FF0D001300135E4E700BF35090020A1
:10200C0070B5104B064618780D460024AC4207DB21
:10201C0010F1160F03D00C4B002207280DDD70BDFC
:10202C0056F824104B6833B1C0B2FFF75DFF10F1C6
:10203C00160FF4D001300134E8E798601A610130D2
:10204C00EBE700BF3509002090ED00E02DE9F04FE3
:10205C00C9B0CDE90C011F460023934604939BF8AD
:10206C0000000BF1010548B125287BD0DDE90C31CE
:10207C009847013006D14FF0FF330493049849B0D0
:10208C00BDE8F08F049B0133CDE90437AB46059FC7
:10209C00E5E7232C5FD054D8002CEFD0202C08BFC0
:1020AC004FF001095D46AB46BF481BF8014B21467A
:1020BC0002F0EDFA0028ECD12A2C5BD13A6803929D
:1020CC00002AB8BF524207F10403B8BF03926C78E0
:1020DC00BCBF0122069205F1020B1F46039BC92BC4
:1020EC0028BFC82303932E2C69D19BF800302A2BD0
:1020FC0062D13D680BF1010B0437C92D9BF80040F0
:10210C00A8BF4FF0FF350BF1010B2146A74802F099
:10211C00BEFA18B19BF800400BF1010B672C7CDC6C
:10212C00652C80F2E080472C4CDC452C80F2DB8067
:10213C00002CA3D0252C00F03583C82C40F33C8315
:10214C0099E72D2C0BD0302C07D02B2C079B08BFDC
:10215C0001230793A6E70126A4E70294A2E7012333
:10216C0006939FE74FF0000920230293CDE90699CF
:10217C004E4698E7A4F13003092B0390B3D80A22FA
:10218C00AB461BF8010BA0F13003092B0446A5D874
:10219C00039B02FB0300A0F1300303935D46EFE7C2
:1021AC0000FB0535303D93465A4612F8013BA3F12E
:1021BC0030010929F4D9A0E700250A20F4E74FF0F3
:1021CC00FF35A2E7632C6FD032DC582CB5D13B1D08
:1021DC0005933968002E00F0DC8247F63003ADF829
:1021EC0054300DF156072B461022384602F0CFFA28
:1021FC00582C06D10DF1530212F8013F002B40F080
:10220C00CA820DF15408002EA7EB0808404414BFF5
:10221C004FF002094FF0000929E0702C00F0948275
:10222C002BDC6E2C00F0538200F35782692C84D186
:10223C003C683B1D002C059342DA2D23B4F1004F72
:10224C008DF8543041D061420DF155082B46404673
:10225C000A2202F09CFA079B804415A8A8EB000008
:10226C00002B3DD1B9F1000F01D14FEAD4790135E2
:10227C00029B18BF2023029380E0752C00F0808213
:10228C00782CA4D0732C7FF458AF3B1D3968059380
:10229C0000268B5D002B00F066820136C82EF8D12B
:1022AC00002D80F2628266E23B1D05933B688DF83F
:1022BC00543000238DF8553001264FF000091CE2F4
:1022CC00079B23B12B238DF854302146BCE7B9F181
:1022DC00000F01D02023F6E721460DF15408B5E795
:1022EC00DDF81C90C3E7073727F0070707F1080351
:1022FC00D7E900C70593FB0243EA5C5323F0004186
:10230C004FEACC220B46C7F30A58CDE9102340F212
:10231C00FF7310469845CDE90001604648D100286E
:10232C00DDE9001277F10003B8BF2D2315A8B6BF65
:10233C008DF8543003460DF155030A43A4F14104C2
:10234C0003F1030825D1192C1DD849221A704E22ED
:10235C005A7046229A700022DA70079BA8EB000094
:10236C00002B40F05582B9F1000F07D19DF85410A5
:10237C00A1F12D03D3F1000949EB0309C8283FF75C
:10238C007AAE0646B9E169221A706E225A7066223C
:10239C00E0E7192C99BF4E2241216E22612194BF96
:1023AC001A701A705970D5E7E3560000E956000010
:1023BC00DDE90023462C42EA080243EAE87308BF31
:1023CC006624134343D0DDE90023002843F0004387
:1023DC00CDE9102377F10003A8F2FE3839DA2D236A
:1023EC008DF854300DF1550A0023009318F1020FAB
:1023FC003EDBB8F1000F79DC10A808F1010802F0FF
:10240C00EEF9B8F1040FF7D1002D24F02003B8BF7A
:10241C000625472B40F09780002E40F092802B1C15
:10242C0018BF01230893009B033304DB009A6B1C39
:10243C009A4240F38D80672C0CBF6524452405F12E
:10244C000108102398450F93A8BF984689E04FF0D8
:10245C000008079B0BB12B23C2E7B9F1000F01D089
:10246C002023BDE70DF1540ABEE710A802F0B7F91E
:10247C00DDE9107C00230B93CDF828C0DDE90A01BF
:10248C00A84A00238B4208BF824208F10108ECD312
:10249C000522A7FB0201CDE90801099B02FB0C33C5
:1024AC000993DDE90823CDE91023009B013B009340
:1024BC004FF0000C099A002300216FF00040994264
:1024CC0008BF904207D2BCF1000F8FD0DDE9082382
:1024DC00CDE910238AE7DDE9082392185B41CDE9A9
:1024EC00082308F1FF384FF0010CE3E710A802F0C5
:1024FC008AF9009B01330093DDE91023CDE9082311
:10250C0008F1FF384FF0000C099A002300216FF0FE
:10251C000040994208BF904208D2BCF1000F3FF432
:10252C0068AFDDE90823CDE9102362E7DDE9082374
:10253C0092185B41CDE9082308F1FF384FF0010CEC
:10254C00E2E700236EE70023662C08937FF477AF55
:10255C00009B13EB05084BD510230F9366244FF00B
:10256C00000848A900224FF0006361E9362318F1F6
:10257C00FF383FD2DDE91023DDE91201171843EBD8
:10258C0001083A464346CDE9102308F07042002377
:10259C00134308D010A802F036F910A802F01FF966
:1025AC00009B01330093662C0AF1010840D1009B7B
:1025BC00002B29DD534498460FA910A802F054F9BA
:1025CC000AF8010BC245F7D10023009306B95DB19F
:1025DC002E2388F80030464608EB05034FF0300AEE
:1025EC00B34215D10135A844089B002B39D160E0CA
:1025FC00662426E708460A9102F005F90A9908466E
:10260C0002F0EDF80A99B2E730238AF80030DDE7E2
:10261C00009A2AB1013286F801A000920136DFE758
:10262C000FA910A80A9302F01FF90A9B7070F5E726
:10263C000FA910A802F018F9302818BF009B8AF8CF
:10264C0000001CBF03F1FF33009306B93DB10AF142
:10265C0002082E238AF80130454445452ED1089BAB
:10266C0043B118F8012C302A08F1FF332DD02E2A53
:10267C0008BF984624F02003452B1AD1009B88F8FC
:10268C000040002BBBBF5B4200932B232D2388F80B
:10269C0001300A22009B93FBF2F303F1300188F81E
:1026AC000210009902FB1317303788F8037008F1F9
:1026BC000408002388F8003015A84EE60FA910A8CE
:1026CC0002F0D2F808F8010BC7E79846C9E73B1DA2
:1026DC0005933B68049A1A60D9E43B1D059339684D
:1026EC0016B330238DF8543059BB0135029B8DF84D
:1026FC00551018BF202389460293039BB34240F325
:10270C008580069B15AD002B58D02023039AAB5522
:10271C000136B242FAD1DDE9033215AC13441D4641
:10272C00A41A6FE03233333315A80DF154082B463D
:10273C000822A0EB080802F02AF840444FF00009E8
:10274C0095E50DF15500F0E73B1D059347F6300379
:10275C00ADF854303968082310220DF1560002F000
:10276C0016F80230EAE7002D02DBAE42A8BF2E4677
:10277C00002E3FF48CAC324615A801F0BAFF9CE554
:10278C003B1D05930A222B46396815A801F0FFFF63
:10279C00D4E715AF27E5A3F1610119299CBF203BB4
:1027AC00137029E50D990C9B2046984701303FF496
:1027BC0062AC049B01330493059768E4039B9C1B58
:1027CC00721C2819294601F07DFF069B029A202ACB
:1027DC0018BF4B4606931C44069BA3429BDA069BF0
:1027EC001A46029BAB54134601330693F4E7049B41
:1027FC000D99E05C0C9B984701303FF43CAC049B7A
:10280C0001330493049BAB42F1D140E4039682E77D
:10281C00DDF81C90B2E500BF014B1860704700BF9B
:10282C00841600200EB40FB505AB6FF0004153F8C1
:10283C00042B029003910648019302A9FFF706FCB2
:10284C00029B00221A7004B05DF804EB03B07047D1
:10285C00B148000008B5094B1A786AB90121197002
:10286C0006200521FFF7F0F90620FFF7C9F9044B04
:10287C004FF00042C3F80423002008BD36090020A5
:10288C00006000402DE9F7434A4E3568012D63D1B5
:10289C00494A93681268DC69D2F80880D3E90212BD
:1028AC000A40D3E90510014322EA0102D8F80010CE
:1028BC001B69D1F810155C404C4022EA04042F46E9
:1028CC004FF00009002A36D1326033680093009B28
:1028DC003A4E002301279C46D6F8042307FA03F14D
:1028EC00114214D003F1805202F5C25292001168C9
:1028FC0001290CD103F5A27056F82000C2F800C0D3
:10290C0012680192C0F304208140019A0C430133F8
:10291C00082BE1D114B3284FBB681968F1B10E68CC
:10292C008B681C4203D04B68224638469847AEB1A0
:10293C0031463668F4E73A420AD098F8043009F088
:10294C001F00002140EA431001F0B9FF22EA070200
:10295C0009F101097F00B5E70024B9E7012D0DD17C
:10296C00154B9C681B689F68D4E902321A40D4E965
:10297C0005310B4322EA0302002612B903B0BDE86D
:10298C00F083154212D0E169236997F804C04B40DB
:10299C00F34013F0010F06F01F000CBF03210221BE
:1029AC0040EA4C1001F08BFF22EA050201366D0063
:1029BC00E3E700BF7C6100406C1700200060004022
:1029CC00F7B5036886689B6801F01F040D464C49F7
:1029DC001B79D1F8042344EA4314D2B2002303F543
:1029EC00A27051F82000C0F3042084426CD122FA6A
:1029FC0003F0C00768D59A0002F1804202F5C0428C
:102A0C00D2F8100520F00100C2F81005012202FADC
:102A1C0003F3C1F808332046002101F050FFB068E1
:102A2C00E84010F001004DD0F068E84010F00100D3
:102A3C0048D07069E84010F0010251D0B369EB4006
:102A4C00DB0745D43369F269EB4022FA05F503F054
:102A5C00010305F00105AB420CBF02250125284FEF
:102A6C00002101F5A27357F8230010F0030031D1B7
:102A7C008A0002F1804303F5C0432402D3F81065A9
:102A8C0026F4473626F44076C3F81065D3F8106563
:102A9C0004F4F85402F1804202F5C24244EA0545BE
:102AAC003543C3F81055106012680192019AD3F89F
:102ABC00102542F00102C3F81025012303FA01F19D
:102ACC00C7F8041303B0F0BD0133082B87D1A2E77C
:102ADC000325C4E701310829C3D16FF01200F1E7D7
:102AEC00F16933694B4023FA05F515F0010F2046C7
:102AFC000CBF0321022101F0E2FE1046E2E700BF09
:102B0C000060004030B5002285B00546012104204C
:102B1C00FFF79AF80E4B00930024FF2328680194CA
:102B2C008DF806304FF0005302930A4A80680394E4
:102B3C002B466946FEF73EFA074B984205D1A8682A
:102B4C0002F035F8204605B030BD6FF00F00FAE703
:102B5C0010141211FB4B00000000AD0B7FB5856803
:102B6C00EA6B6B6C8AB9002B33D11C4600221146E0
:102B7C00284601F0F2FF6C6205F1140000F0CAFE69
:102B8C00002385F84C3004B070BD23B39342194632
:102B9C0028BF11460068AC6B806800948668B1420F
:102BAC0028BF3146A964C4B1002A18BF0A46019255
:102BBC002A6C02929AB1002B18BF0B460022694670
:102BCC000393FEF79FFA074B9842DCD06FF0040496
:102BDC00CCE71946DEE71146DCE72246E7E7134669
:102BEC00ECE700BF0000AD0B2DE9F047074680680D
:102BFC00884604304FF0FF311D46164600F0B0FEFB
:102C0C00BC682368984560D0B8F8043041F60901D7
:102C1C00194040F0AA80C3F34513082B40F0A5805F
:102C2C00D8F80020524B9A4240F29F803B68D8F86B
:102C3C000820D3F80890C4F800808AB1106878B1E5
:102C4C0043685268D3F800A00123D04722689368E8
:102C5C00B2F90420D243D20FD3E9000101F074FF82
:102C6C00B8F80430D9F80010980703F0040259D5CD
:102C7C00002A0CBF02220322022AC3F3001355D0F0
:102C8C00032A56D0012A01D143F00203C1F854356E
:102C9C00384AD8F8003093424ED9374A93424ED92D
:102CAC00364A93424ED9364A93424ED9354A9342CC
:102CBC004ED902F5741202F5106293428CBF4FF09C
:102CCC0000434FF08043C1F82435012384F84C3085
:102CDC00002E40D033687268A362E2621A685B68A7
:102CEC00A263E363002D3BD02B686A6823636263A5
:102CFC001A685B68226463640022626201212046C8
:102D0C0001F02BFF3846FFF729FF4FF0FF3104F19C
:102D1C00140000F025FE656A201D00F0FBFD28461E
:102D2C00BDE8F087003218BF0122A5E743F0040389
:102D3C00ACE743F00603A9E74FF00073C3E74FF08D
:102D4C008063C0E74FF00063BDE74FF08053BAE7F4
:102D5C004FF00053B7E7C4E90A66C4E90E66C1E751
:102D6C00C4E90C55C4E91055C6E76FF01505D3E757
:102D7C0047E801008FD003001FA107003F420F005E
:102D8C007F841E00FF083D00034B186818B1D3F870
:102D9C005C03C3F85C0370472421004030B54B79C9
:102DAC00012B20D18B79032B1DD1CC792CB1012C8B
:102DBC0019D103689B681B78ABB10A7912B1022A4E
:102DCC0011D10E220B6847F61225AB426CD027D8D6
:102DDC00B3F5965F61D012D8B3F5167F4CD005D8F9
:102DEC00B3F5967F70D06FF0220052E0B3F5966F7A
:102DFC0050D0B3F5166FF6D14FF41D233EE0B3F56A
:102E0C00615F4CD004D8B3F5165FECD1304B35E094
:102E1C00B3F5964F46D0B3F5E14FE4D12D4B2DE0F1
:102E2C00B3F5E13F48D011D84DF6C025AB423ED0AA
:102E3C0004D8B3F5164FD6D1274B1FE0B3F5614F2D
:102E4C0038D0B3F5963FCED1244B17E0B3F5E12F34
:102E5C0036D008D8B3F5613F30D0214DAB42C2D14A
:102E6C004FF080630AE0B3F5612F2BD01D4DAB42C0
:102E7C00B9D14FF0805301E04FF41C331A4D22436B
:102E8C00C5F82435C5F86C25836803C983E80300AD
:102E9C00002030BD4FF49E23F0E7144BEEE74FF4C7
:102EAC006C13EBE7124BE9E74FF40003E6E74FF442
:102EBC006503E3E70F4BE1E70F4BDFE70F4BDDE774
:102ECC000F4BDBE70F4BD9E74FF4A033D6E700BF2E
:102EDC000050270000F0750000509D0000903A0152
:102EEC0090D0030040420F000020004000B01300BF
:102EFC0000A04E0000F0EB0000E0D70100B0AF03E3
:102F0C0000705F0700D0BE0E084B1A6882B052B139
:102F1C00002018601B680193019B054BD3F81835F2
:102F2C000B7002B070474FF0FF30FAE708210040F9
:102F3C0000200040094B00221A6082B01A680192EE
:102F4C00019A074A01201060C2F814151A68002A69
:102F5C00FCD0044B01221A6002B070471C210040C7
:102F6C00082000400C2000404FF0A043202213B555
:102F7C00C3F808250322C3F814270D4C81680022DE
:102F8C00C3F82C270B23C4F814350523C4F80C35CF
:102F9C00FFF704FF48B90423C4F80035054B18604B
:102FAC001B680193019B0123236002B010BD00BF7D
:102FBC000020004008210040094B70B553F8204018
:102FCC000130002653F82050A54200D870BD23686C
:102FDC0020465B68984700B166600C34F4E700BF8C
:102FEC0094510000104B70B5104C05461E469C4287
:102FFC0004D10E4CB44209D1002412E062681AB11B
:10300C0022681268AA420CD00C34F0E763680BB942
:10301C000C34EFE723682846196801F046FB0028BA
:10302C00F6D1204670BD00BF84170020F416002096
:10303C0008B50B4D4FF02002EFF3118382F311888A
:10304C00BFF36F8F01F010FF012102280446D8BF97
:10305C00084601F019FF2C62FEF73EFEEAE700BFBE
:10306C00640200200248034A0021121A01F06EBBD0
:10307C00000000203809002008B50648064A074918
:10308C00121A01F036FB064A06490748BDE808400B
:10309C0001F02FBB78160020AC170020445700001D
:1030AC0000000000445700000000002008B502207A
:1030BC00FFF782FF074801F050FA0320FFF77CFF6F
:1030CC0000F0C8FC00F036FE034A137B23F001032A
:1030DC00137308BDF6560000F801002080B53D4B77
:1030EC00A2B083F308883C4B3C4E5A693C4D42F4E9
:1030FC0000725A610024E02283F82220DC771C76CF
:10310C005C769C765A6A42F4E0225A62FEF770FDB5
:10311C00FEF7DCFD07AB21466C22184601F016FBCE
:10312C000127B06020468DF82970FFF745FF38461F
:10313C00FFF742FF00F046FB2A4B75624FF48062AA
:10314C00CDE90473CDE90244CDE90044264B27496F
:10315C00284600F065FC6B7B23F0040213F01B0F78
:10316C006A73344604D1AB6913B9284600F0B2F93E
:10317C001F4B204E059301220F23CDE90332002370
:10318C004FF4A0721C4900933046CDE901331B4B20
:10319C0000F046FC737BE66023F004037373184B5A
:1031AC00C4E90633FEF782FE0D48A56001F05DFA16
:1031BC000D4B144A184682F3098863B64FF0000190
:1031CC0081F31188BFF36F8F00210022002301F0DF
:1031DC004EF800BF7816002000ED00E064020020DD
:1031EC00F801002038570000B930000038090020E1
:1031FC003D5700008C010020380D00203D300000B0
:10320C007C020020380D002070B50D4634498B68C7
:10321C00DA7B013A0446DA73C26808464AB1A368FD
:10322C0089688B4212D09DB900F038F96FF00F0508
:10323C000AE08B6893F90E30236101328368E260F7
:10324C00A36000F02BF90025284670BD2369F3E735
:10325C0091F90E1093F90E309942A8BF194621EA44
:10326C00E1714FF02003EFF3118683F31188BFF364
:10327C006F8FA06890F90E30994201DA00F054FA81
:10328C002B4622463146174800F03AFA054610B94B
:10329C0000F004F9D8E7236821699C4207D033B1C8
:1032AC0093F90E309942A8BF194621EAE1714FF00B
:1032BC002003EFF3118583F31188BFF36F8FA068A0
:1032CC0090F90E30994201D000F02EFA85F3118856
:1032DC00BFF36F8F00F0E2F86FF00A05B4E700BFA0
:1032EC0064020020370900201E4B9A68D37B013BF7
:1032FC0070B50446D373C368012B05D0013BC36082
:10330C00BDE8704000F0CAB84FF02003EFF311860F
:10331C0083F31188BFF36F8F0169806890F90E30C9
:10332C00994201D000F000FA204601F028FD054634
:10333C00A06080B1437BDB0603D183690BB900F03D
:10334C00C9F886F31188BFF36F8F0023AB6695F92C
:10335C000E302361D4E7E06086F31188BFF36F8FE2
:10336C00CEE700BF64020020EFF305800D2809D8DA
:10337C0028B1054B586880F40060C0F3C02080F081
:10338C00010070470120FAE700ED00E008B5FEF7F8
:10339C005DFA054B054A1B6818441061002118465C
:1033AC00BDE8084001F070BD9C02002064020020C2
:1033BC00F8B50D464FF02003EFF3118483F3118819
:1033CC00BFF36F8F0D4E0E4B4FF400410027C1FB26
:1033DC00006700221A6130464FF4A02200233946C0
:1033EC00FCF776FE074B1860074B1D60FFF7CEFF0E
:1033FC0084F31188BFF36F8FF8BD00BFFFFF04008B
:10340C00640200209C020020980200204FF0200350
:10341C00EFF3118183F31188BFF36F8F044B9A681C
:10342C00D37B013BD37381F31188BFF36F8F70474C
:10343C0064020020094B03F12802824205D19B68EB
:10344C008B4202D14B7BDB0607D1D1E900231A60FA
:10345C000A6853600023C1E90033704764020020FE
:10346C0038B50D4C024604F1280001F051FC05461C
:10347C0000B9E568A3684AB95A7BD20606D1AA6995
:10348C0022B9DA897F2A01D9636238BD9D4201D005
:10349C00FFF77CFF6562F8E76402002010B54FF07F
:1034AC002003EFF3118483F31188BFF36F8F084B64
:1034BC009A68D37B0133D3730120FFF7D1FF84F3D8
:1034CC001188BFF36F8FBDE8104001F017BC00BF2F
:1034DC0064020020F8B54FF02003EFF3118483F35E
:1034EC001188BFF36F8F164A114651F8283F8B4253
:1034FC000CD05BB1D66A90F90E5093F90E70AF42B6
:10350C000BDCB34202D01B68002BF6D1D36A4360AC
:10351C00D36A01601860D06205E05A68C0E90032D5
:10352C005A6810605860437B43F04003437300209B
:10353C00FFF796FF84F31188BFF36F8FF8BD00BFC0
:10354C0064020020F8B504464FF02003EFF3118617
:10355C0083F31188BFF36F8F194F07F128050146CC
:10356C002846FFF767FFBB6AAB423A460CD05BB10B
:10357C00F86A94F90E1093F90E708F420BDC8342AB
:10358C0002D01B68002BF6D1D36A6360D36A256026
:10359C001C60D46205E05968C4E9003159680C60BC
:1035AC005C60637B906843F040036373031B584279
:1035BC005841FFF755FF86F31188BFF36F8FF8BDA5
:1035CC00640200201449154A8B6810B51468A34294
:1035DC0003D1BDE81040FFF7D9BE00241460104A97
:1035EC001268BAB1DA897F2A14D80E4A93F90E40C0
:1035FC00126894420EDB0C4A126893420AD09A6904
:10360C0042B90A69824203DC1846FFF79BFFE0E7E8
:10361C00121A0A6110BD00BF64020020940200203F
:10362C009C02002098020020AC51000038B50446E2
:10363C004FF02003EFF3118583F31188BFF36F8FE5
:10364C00437B5A0607D501460948FFF7F3FE637B17
:10365C0023F040036373074B9868031B584258418F
:10366C00FFF7FEFE85F31188BFF36F8F38BD00BFE7
:10367C008C0200206402002070B504460D461646EC
:10368C00FFF7D4FF637B43F002036373EDB12B6848
:10369C00A5609D420CD05BB194F90E2093F90E10ED
:1036AC0091420CDC69688B4202D01B68002BF5D16F
:1036BC006B6863606B6825601C606C6005E05A6821
:1036CC00C4E900325A6814605C60731C12D00A485A
:1036DC004FF4004500214FF4A022C5FB0601002346
:1036EC00FCF7F6FC0549421C04F11800BDE87040DB
:1036FC0000F054BA70BD00BFFFFF0400294D00005C
:10370C0010B50C461146064A9068064A10601A46D7
:10371C00FFF7B2FF2046BDE81040FEF7CFB800BF60
:10372C0064020020940200202DE9F84304464FF077
:10373C002003EFF3118983F31188BFF36F8F01F02E
:10374C009EFA4EB28046002835D01D4D05F1280753
:10375C0021463846FFF76EFEAB6AA673BB422A467B
:10376C000AD04BB1E96A93F90E00B0420BDC9942D6
:10377C0002D01B68002BF6D1D36A6360D36A276032
:10378C001C60D46205E05A68C4E900325A681460BF
:10379C005C600120FFF764FE89F31188BFF36F8F23
:1037AC00B8F1000F09D0064B9B68DB7B2BB9BDE849
:1037BC00F84301F0A3BAA673EEE7BDE8F88300BFA7
:1037CC0064020020044B002103F12802C3E90A2201
:1037DC000846FFF7EDBD00BF64020020F8B5224C8F
:1037EC00224BA2681B689A4232D04FF02003EFF3B1
:1037FC00118683F31188BFF36F8F04F12805A1683C
:10380C002846FFF717FEA36AA268AB420CD05BB147
:10381C00E16A92F90E0093F90E7087420BDC994223
:10382C0002D01B68002BF6D1E36A5360E36A156083
:10383C001A60E26205E05968C2E9003159680A6011
:10384C005A600120FFF70CFE86F31188BFF36F8FCF
:10385C004FF02003EFF3118083F31188BFF36F8FC8
:10386C00BDE8F840FEF72AB864020020AC51000015
:10387C00F8B5044618B9FFF7B1FF2046F8BD1E484D
:10388C004FF4004500214FF4A0220023C5FB040196
:10389C00FCF71EFC461C01F011FB34184FF0200302
:1038AC00EFF3118783F31188BFF36F8F134D144B14
:1038BC00A8681860FFF7BAFEA8681249324618309B
:1038CC0000F06CF9AA68537B43F01003537338462D
:1038DC00FDF7F4FF01F0F2FA201A002809DD4FF48D
:1038EC007A716422002380FB0101FCF741FC044641
:1038FC00C3E70024C1E700BFFFFF040064020020FF
:10390C0094020020294D0000014B9868704700BFBD
:10391C006402002070B504464FF02003EFF31186CB
:10392C0083F31188BFF36F8F01F029FA054670B14C
:10393C00437BDB0603D183690BB9FFF7CBFD002377
:10394C00AB6631460548BDE8704001F0BAB9D4E920
:10395C0002329A4218BF0133A360F2E73709002004
:10396C0010B402460B464FF02000EFF3118180F3A8
:10397C001188BFF36F8F946844B1013C946081F35C
:10398C001188BFF36F8F002010BC704733B981F3DF
:10399C001188BFF36F8F6FF00F00F5E7014810BC73
:1039AC00FFF7AEBE37090020EFF305800D2807D8CE
:1039BC0038B1044B586880F40060C0F3C0207047E5
:1039CC000120704700ED00E0024B9B68187B00F073
:1039DC00010070476402002010B502464FF020032E
:1039EC00EFF3118483F31188BFF36F8F437B590777
:1039FC0004D484F31188BFF36F8F10BD23F004033C
:103A0C00437301F0E9F910B11046FFF763FD21464D
:103A1C000248BDE8104001F054B900BF370900203E
:103A2C0030B587B004460E9D04950D9D03950C9DF5
:103A3C0002950B9D01950A9D0095FEF71DF9044B0F
:103A4C009B6813B9236607B030BD1B6EFAE700BF45
:103A5C00640200202DE9F04F284E294D87B0B04666
:103A6C00B54205F130040FD3FFF7D0FC244C254EA2
:103A7C00DFF894A04FF400490027444521D307B048
:103A8C00BDE8F04FFFF70ABD54F8043C059354F819
:103A9C00103C049354F8143C039354F8183C0293D0
:103AAC0054F81C3C019354F8203C009354E90A232D
:103ABC0054E90C01FFF7B4FF54F8303CDD642546A3
:103ACC00CEE7616A4B1C04D0256821B92846FFF764
:103ADC0083FF3034D1E7B346BC46C9FB01BC4FF47D
:103AEC00A022002358466146FCF7F2FA5146421CCC
:103AFC0005F1180000F052F8EBE700BF8417002026
:103B0C0084170020FFFF0400294D0000034B1B68A5
:103B1C000BB9FDF79BBE0020704700BFA002002030
:103B2C00036840B1084A5268904204D01BB19A68AD
:103B3C0081680A449A604268136003685A600023E3
:103B4C00C0E90033704700BFE016002038B5104BB9
:103B5C001B78002B0F4B1C6814BF4FF0FF306FF01D
:103B6C0000409C420AD04CB1A568FFF7CFFF281A41
:103B7C0000280ADBA468FFF7C9FF201A064B1B6953
:103B8C0013B19842A8BF184638BD0020F6E700BF15
:103B9C0037090020E01600206402002070B50446AE
:103BAC001646C1604FF02003EFF3118583F31188A3
:103BBC00BFF36F8FFFF7AAFF194B1A68012EACBF2A
:103BCC00801901309A42A06001D05E6832B95A68FF
:103BDC0062605A68236014605C600BE09068A168B6
:103BEC00884216DD411A91605168C4E90021516880
:103BFC000C6054601A689A4206D0944204D1FFF7C4
:103C0C00A5FF0021FDF7E8FD85F31188BFF36F8F49
:103C1C0070BD091A9642A160D9D01268D6E700BFD0
:103C2C00E01600202DE9F04B0446FFF7CBFC4FF0DB
:103C3C002003EFF3118583F31188BFF36F8F214EAF
:103C4C00214FDFF888903460B846D9F800403268CC
:103C5C004C45D7E900BC05D024B1A368934214DDD0
:103C6C009B1AA3601BEB02004CEBE2710024C8E929
:103C7C0000013460FFF76AFF2146FDF7ADFD85F3C7
:103C8C001188BFF36F8FBDE8F08B1BEB03004CEB7F
:103C9C00E371D31A33600023C7E90001A360204607
:103CAC00FFF73EFF85F31188BFF36F8FE3689847EA
:103CBC004FF02003EFF3118583F31188BFF36F8F5F
:103CCC00C3E700BFA002002000000020E016002087
:103CDC002DE918484FF02003EFF3118483F311887A
:103CEC00BFF36F8FFDF7B2FD074BD3E9002312EB47
:103CFC00000B43F1000C5846614684F31188BFF366
:103D0C006F8FBDE8188800BF0000002038B5074C45
:103D1C00074DAC4201D3002038BD04F114032046FA
:103D2C00C4E9053300F058FA1C34F2E7841700207C
:103D3C008417002008B5FCF79BFBFEE707B5C0B263
:103D4C0051B960F07F008DF80400012001A9FCF747
:103D5C00C9FE03B05DF804FB60F03F007F298DF8CD
:103D6C000400C8B285BF60F07F00C9098DF805005A
:103D7C008DF8050092BF02208DF806100320E5E7B0
:103D8C0007B5C0B241B98DF80400012001A9FCF7B8
:103D9C00DDFE03B05DF804FB40F040007F298DF898
:103DAC000400C8B285BF60F07F00C9098DF805001A
:103DBC008DF8050092BF02208DF806100320E5E770
:103DCC0010B4144603460A461120214610BCFFF7D6
:103DDC00D7BF13B501AC234680B2042289B2FFF7DA
:103DEC00CFFF03230020E25C13F1FF3302EB002032
:103DFC00F9D202B010BD00210846FFF7EABF07B5A3
:103E0C00022201AB89B280B2FFF7BAFF9DF80530F0
:103E1C009DF8040000EB032080B203B05DF804FBB6
:103E2C0007B501220DF1070389B280B2FFF7A8FF95
:103E3C009DF8070003B05DF804FB07B502AB89B22F
:103E4C0003F8012D80B20122FFF778FF03B05DF873
:103E5C0004FB07B58DF80420120A8DF8052001AB80
:103E6C00022289B280B2FFF769FF03B05DF804FB50
:103E7C0007B5130A8DF804208DF80530130C120EBB
:103E8C008DF806308DF8072001AB042289B280B280
:103E9C00FFF754FF03B05DF804FB08B5024604219C
:103EAC002D20FFF7D6FF032206212D20FFF7C5FF9B
:103EBC0006212D200022FFF7C0FF0A212D20BDE88E
:103ECC000840FFF786BF08B5002202212C20FFF71F
:103EDC00B4FF022211462C20BDE80840FFF7ADBF0D
:103EEC0010B56D22044640F606012E20FFF7A5FF03
:103EFC0044B140F2076241F606012E20BDE81040A5
:103F0C00FFF7A7BF41F20762F5E713B5022204469B
:103F1C0001AB00213620FFF733FF0E2C12D8DFE85F
:103F2C0004F020082911111111303D1111484D5286
:103F3C00590000238DF804309DF8053023F001035F
:103F4C008DF8053001AB012200213620FFF7F6FE7B
:103F5C0001220DF1050311463620FFF7EFFE02B0EA
:103F6C0010BD9DF8043023F0030343F001038DF8DA
:103F7C000430E7E79DF8043023F0030343F0020319
:103F8C00F5E79DF8043023F04C0343F048038DF81B
:103F9C0004309DF8053063F07F03D1E79DF80430C1
:103FAC0023F04C038DF804309DF8053003F07F03AB
:103FBC00C6E79DF8053043F00203C1E79DF80530D4
:103FCC0023F00203BCE79DF8043023F0300343F0E8
:103FDC002003CCE740F20133ADF80430B2E708B56A
:103FEC000E20FFF792FF4FF4004206212D20FFF721
:103FFC0030FF012000F0CBF80120BDE80840FFF7AE
:10400C0084BF08B50020FFF780FF00220421362072
:10401C00BDE80840FFF71DBF08B503210F20FFF7CF
:10402C00FFFE80EA4000030606D5012203210D2085
:10403C00BDE80840FFF701BF08BD410738B504468D
:10404C0001D4FFF7E9FF14F001050CBF4FF48072A7
:10405C004FF4407200210D20FFF7FBFE0DB900203C
:10406C0038BD03210F20FFF7DBFE0307F7D5FCF764
:10407C009DFB14F0020104D14FF480720D20FFF768
:10408C00E8FE4FF0FF30EBE700F01F0242F0600259
:10409C000E212B20FFF7D1BEFFF7EABB80B485B011
:1040AC0000AF78600023FB6010E00023BB6002E0EF
:1040BC00BB680133BB60BB68012BD4BF0123002359
:1040CC00DBB2002BF4D1FB680133FB60FB687A6830
:1040DC009A428CBF01230023DBB2002BE5D10023D5
:1040EC0018461437BD4680BC704780B582B000AF0F
:1040FC0078607B681846FFF7CFFF00BF0837BD46D6
:10410C0080BD80B500AF0120FFF7C8FF002000F094
:10411C0005F80220FFF7E9FF00BF80BD80B483B033
:10412C0000AF786000BF0C37BD4680BC704780B4D0
:10413C0000AF00BFBD4680BC704780B500AFFCF738
:10414C008FFC00BF80BD80B500AFFCF7A9FC00BFA1
:10415C0080BD80B500AFFFF7EAFF80BD80B500AF32
:10416C00FFF7E5FF80BD80B400AF00231846BD46C5
:10417C0080BC704710B5FFF7F6FF044608B1FFF797
:10418C00E8FF204610BD08B1FFF7E8BF7047FFF706
:10419C00ACBF70B5C66890F90B000C254D43884236
:1041AC0006EB0504B4BF71592146202492FBF4F4AC
:1041BC0001EB8401196002F01F0070BD07B501AB63
:1041CC00FFF7E7FF019A012303FA00F0136803439A
:1041DC00136003B05DF804FB2DE9F8430446436813
:1041EC000589006894F80AC05D43FF222844E272F6
:1041FC0000214FF00C0E8C4505DC00252389AB42C9
:10420C0022DCBDE8F883D4F80C80B5FBF3F20EFB8E
:10421C0001F71F2A08EB0706C8BF1F324FEA9303AA
:10422C0006F10409C8BF520903F10303C6E9019959
:10423C0023F00303D4BFE17248F8070001F1010138
:10424C00C8BF00EB8200D6E76268E36820686A4367
:10425C0081181E1D86509A684A609A682046116023
:10426C0099602A460021FFF7A9FF0135C6E708B57A
:10427C000446084611461A46A047FFF745FBFDF7D2
:10428C00A3FD0020704770B504460D464520A0479D
:10429C0029465220A047294623465220BDE87040AB
:1042AC0018472DE9F04F89B01C464FF0000A531EF9
:1042BC0006460F4603934FF0FF39D046002505E024
:1042CC006DB9252800F03D813946B047039B13F8A2
:1042DC00010F03930028F3D109B0BDE8F08F6428D7
:1042EC0062D019D839280AD8312851D22D283DD07E
:1042FC0030283ED0252808D13946B047DEE758286B
:10430C0000F0A880632800F0168139462520B047BC
:10431C00039B39461878F0E7702800F0918006D896
:10432C00692841D06C283CD06828CFD0EDE775289F
:10433C006DD017D87328E8D1256804F1040B2B46EF
:10434C001C4614F8010B002840F0EC80B8F1030F68
:10435C0040F000815C1BA9EB0404002C00F3E68008
:10436C005C46ABE7782875D07A28DEE74FF0030877
:10437C00ACE7B9F1000F0EDAB8F1000F00F0E780EE
:10438C00A0F13009B8F1000F08BF4FF002089DE70B
:10439C00B9F1000FF4DB0A2303FB0909A9F1300979
:1043AC00F0E70AF1010A91E7BAF1000F12D1256882
:1043BC000434002D05DA39462D20B0476D4209F141
:1043CC00FF39CDF8009043462A4639463046FCF773
:1043DC0001FC73E7BAF1010FE9D0073424F00703AD
:1043EC0003F10804D3E9002312F1004043F100016A
:1043FC004FF0000C4FF0FF3B8C4508BF834504D2B7
:10440C0039463046FFF73FFF58E71546D1E7BAF17A
:10441C00000F05D122680434CDF800904346D4E750
:10442C00BAF1010FF6D0073424F0070303F10804A6
:10443C00D3E90023002B08BFB2F1004FECD3DFE728
:10444C0039463020B04739467820B0474FF008093C
:10445C004FF00108BAF1010F27DC23680793002302
:10446C000493043400231022029306939346079B73
:10447C000BF1FF3B4FEA8B00C0F1200CA0F12001A7
:10448C0023FA00F0049B03FA0CFC40EA0C0023FA1C
:10449C0001F1084310F00F0013D1069B13B9BBF1C7
:1044AC00000F2ED14FF0300C11E0073424F007032D
:1044BC0003F108041A685B6807920493D2E7059A23
:1044CC00D5E709288CBF4FF0570C4FF0300C39460C
:1044DC0060440592B047029B069501330293BBF1F1
:1044EC00000FECD1B8F1030F7FF4E8AE029BC3EBE5
:1044FC004905002D7FF7E2AE39462020B047013D3B
:10450C00F7E7531E91450593E9DBB8F1010F03D191
:10451C0039463020B047E2E7B8F1020FDFD1394617
:10452C002020F7E73946B047234609E739462020D3
:10453C00B047013C11E72068251D3946B0472C4691
:10454C00BCE6AA46A8464FF0FF390125BEE64FF05F
:10455C000108BBE65C460546B8E60FB407B504A9EE
:10456C0051F8040B0191FCF78BFB03B05DF804EBE5
:10457C0004B07047704700470369C1688B429DBF08
:10458C008268D21802F1FF3203F1FF3394BF501A44
:10459C00581A70472DE9F041D0E902670446F61B22
:1045AC004068964288461546384405D900F0A1F873
:1045BC003D44E560BDE8F0813246AD1B00F099F852
:1045CC002A4608EB0601606800F093F8F1E72DE944
:1045DC00F843C5680646894617464FF0000834690B
:1045EC00B3687068A54228BFE418013C621B5C1BD1
:1045FC00BC4228BF3C46944228BF14464946284436
:10460C00224600F076F8B3682544AB4208BF00257B
:10461C003F1BA044A144F560E1D14046BDE8F883BE
:10462C00FCF734BE08B5FFF7FBFF002008BD08B54A
:10463C00002210460121FDF707FB0020FDF7E0FAF0
:10464C00002008BD70477047FDF74CBB0146006861
:10465C00FDF75CBB202383F31188704708B5FDF789
:10466C00FDFBBDE80840FDF70FB907B5002101A817
:10467C00FDF7C6FC03B05DF804FB0139034611F8E5
:10468C00012F0AB91A70704703F8012BF7E7C9B26A
:10469C0002788A42034600F1010004D0002AF7D1C7
:1046AC00002918BF0023184670470138013910F84B
:1046BC00013F11F8012F934202D1002BF7D11A467A
:1046CC00981A7047431A934210B500EB020308D3B3
:1046DC00013902469A420BD011F8014F02F8014BF6
:1046EC00F8E70A4412F8014D03F8014D8A42F9D15A
:1046FC0010BDF0B581EA0004A50703460BD0013BC1
:10470C000A4491421DD1F0BD002AFCD011F8014B96
:10471C0003F8014B013A9C07F6D11D1F0C468F186C
:10472C003E1B032E08D894086FF0030505FB0422EA
:10473C00A40023442144E2E754F8046B45F8046FC9
:10474C00EEE711F8014B03F8014FDAE7F0B5C9B207
:10475C0003469C070FD141EA012444EA04441D4658
:10476C009F187E1B032E0CD8940803EB840413446F
:10477C009C4209D1F0BD002AFCD003F8011B013A80
:10478C00E7E745F8044BECE704F8011BF0E770B5DC
:10479C000446B1FBF2F602FB1611CDB209298CBF0F
:1047AC00272100213035294404F8011B3146002E05
:1047BC00EFD13021221A934207DC2346002103F863
:1047CC000119834204D8104670BD04F8011BF1E7AF
:1047DC001978047803F8014900F8011BF1E7D0E9D6
:1047EC0000232DE930485FEA530C4FEA320B02F0FC
:1047FC0001041BEB04024FF000054CEB0503C0E970
:10480C000023BDE83088D0E900232DE9F04F0521C5
:10481C0012F102084FF0000643F10009B8EB06084C
:10482C00B9FBF1F501FB05F769EB07094FEAD8066F
:10483C0046EA49760024B6FBF1FC4FEACC06A219F5
:10484C004FEA5C77C24645EB07031446A6FB018989
:10485C00BAEB08021D46B2FBF1F2A41845F10005B3
:10486C00C0E90045BDE8F08F0B68002B2DE910481E
:10487C0013DD02684468013B0B600A21A2FB01BCFA
:10488C0001FB04CC5A462CF07043C0E900234FEADC
:10489C001C713031C8B2BDE810883021FAE74FF0F6
:1048AC00FF3070474B68012B07DD0B6818700B68E5
:1048BC0001330B604B68013B4B600020704780005C
:1048CC0000F1A040D0F8003723F44033C0F8003793
:1048DC00D0F8003743EA0141C0F80017704710B513
:1048EC0004688068A468C0692468012904D1584010
:1048FC00C4F80405002010BD003320FA02F04FF07C
:10490C00010118BF012300F001009140834214BF44
:10491C00C4F80815C4F80C15ECE770B50468806889
:10492C00A468C0692568D5F81465D5F81045D5F884
:10493C00045560406C403440604001291CBFD0409D
:10494C0000F001001860002070BD8368186830B555
:10495C0058B10024814213D108685CB95C681860B6
:10496C00A14200D158600020086072B9002030BD0F
:10497C002846EFE720605868814208BF5C60F2E788
:10498C0005680446002DF3D13AB11A680A605868DC
:10499C0019600028EAD15960E9E76FF01500E6E7E5
:1049AC002DE9F74F8046856803F47040B0F5804FD1
:1049BC001E464AD02DDCB0F5805F3ED0B0F5405F8E
:1049CC003FD068BB06F44077B7F5807F3FD0A7F5A2
:1049DC0000746342634106F0010C4FEA4C07012955
:1049EC0047EA0C0718BFD4B247EA002040EA830715
:1049FC0012BFA1464FF01F0900244FF0A04A4FF000
:104A0C00010B06F00203A14523D2002003B0BDE840
:104A1C00F08FB0F5E04F16D005DCB0F5A04F0ED0FE
:104A2C006FF01500F2E7B0F5404F04D0B0F5504FE1
:104A3C00F6D10720C6E70620C4E70120C2E7032011
:104A4C00C0E70420BEE70520BCE70220BAE7032339
:104A5C00C1E7D8F800209268117904F01F0242EAED
:104A6C00411202F5E0724AF822700BFA04F2A968BE
:104A7C00002B25D01143A96069690193B0064CBF86
:104A8C00114391436961A96970064CBF114391436D
:104A9C00A961296970074CBF114391432961E969E8
:104AAC0030064CBF0A4321EA0202EA612146404625
:104ABC00FDF786FF0028A9D10134E4B2019BA2E7DF
:104ACC0021EA0201D7E701292DE9F04118BFD4B240
:104ADC008768064612BF25461F2500244FF00108A3
:104AEC00AC4202D90020BDE8F081FB6808FA04F260
:104AFC0023EA0203FB6021463046FDF761FF0028E4
:104B0C00F1D10134E4B2EBE701292DE9F04118BFF2
:104B1C00D4B28768064612BF25461F2500244FF0E5
:104B2C000108AC4202D90020BDE8F081FB6808FA0C
:104B3C0004F21343FB6021463046FDF741FF002889
:104B4C00F2D10134E4B2ECE7436810B45C6813466C
:104B5C00A4460A4610BC0021604738B504680546D7
:104B6C0024B3A36813B3186800B361B1B4F904207B
:104B7C005968D20FFFF7E8FF2B689B689868BDE86F
:104B8C00384000F032B912B9A28892040ED4986859
:104B9C0000F02BF92A689368B2F90420D243D3E9C8
:104BAC000001D20FBDE83840FFF7CEBF38BD10B5BD
:104BBC00044601220021FFF7D0FFE36823B9201D32
:104BCC00BDE81040FEF7A6BE10BD806803688B429E
:104BDC0010B506D190F84C4034B9FFF7E8FF2046E9
:104BEC0010BD6FF01500FBE76FF00F00F8E70378CE
:104BFC0010B4002B37D18B68D86B9A6C80B1824281
:104C0C000ED8801AD86310BBD86A0138D86210B39A
:104C1C00986A00F108049C628468C0689C63D8633D
:104C2C00586C80B182420ED8801A5864A8B95A6B5D
:104C3C00013A5A63AAB11A6B02F108001863906822
:104C4C00D26818645A64084610BCFDF787BF986B8D
:104C5C000028E5D010449863E2E7186C0028F2D0E5
:104C6C0002441A64EFE710BC704782680B4692E866
:104C7C00030083E8030000207047FFF7E4BC437B8C
:104C8C00DB0603BF8069B0FA80F040090020704752
:104C9C0038B504464FF02003EFF3118583F31188E8
:104CAC00BFF36F8F01468068FEF7C4FB637B23F074
:104CBC000203637385F31188BFF36F8F0023A36026
:104CCC0038BD08B5FEF750FB20B10846BDE80840DA
:104CDC00FCF7F4BD81F31188BFF36F8F08BD08B5E5
:104CEC000246FEF741FB20B11046BDE80840FCF738
:104CFC00E5BD82F31188BFF36F8F08BD4FF0200321
:104D0C00EFF3118083F31188BFF36F8FFFF7E7BFC9
:104D1C000368984214BF18460020704750F8103CA6
:104D2C0070B50446A0F11805CBB14FF02003EFF39A
:104D3C00118683F31188BFF36F8F294650F8100C3E
:104D4C00FEF778FB14F80B3C23F0020304F80B3C41
:104D5C0086F31188BFF36F8F002344F8103C14F8CE
:104D6C000B3C23F0140304F80B3C2846FFF787FF99
:104D7C0020B12846BDE87040FEF7ACBB70BD38B51D
:104D8C004FF02003EFF3118283F31188BFF36F8F81
:104D9C00FFF7BEFF044682F31188BFF36F8FC8B1D3
:104DAC004FF02003EFF3118583F31188BFF36F8F5E
:104DBC0001468068FEF73EFB637B23F002036373BE
:104DCC0085F31188BFF36F8F0023A36004F11800E3
:104DDC0000F034F8204638BD437BDB0603BF806906
:104DEC00B0FA80F0400900207047FBF77BBF036DE1
:104DFC0010B5044603B198472046FFF7EDFF38B1D4
:104E0C002046FEF713FC637B43F00803637310BD6D
:104E1C00637B9B0702D52046FFF73AFFA369002B63
:104E2C00F1D004F1180000F009F8ECE7037300234B
:104E3C0042738173C373C0E90633704710B54FF0EA
:104E4C002002EFF3118482F31188BFF36F8F036894
:104E5C003BB1FEF765FE002084F31188BFF36F8F22
:104E6C0010BD6FF01500F7E710B54FF02003EFF30E
:104E7C00118483F31188BFF36F8FFEF767FE84F301
:104E8C001188BFF36F8F10BD70B504460E464FF0FE
:104E9C002003EFF3118583F31188BFF36F8FFEF7B7
:104EAC0055FEA04205DD012803DD31462046FCF706
:104EBC0093FC85F31188BFF36F8F70BD08B5FEF7B7
:064ECC0007FF08BD70475E
:024ED200FFFFE0
:084ED400D8B2FF7F01000000CD
:104EDC0000000000251600000000000055460000F0
:104EEC000000000055460000000000005546000080
:104EFC0041120000834500000000000055460000F0
:104F0C000000000091280000000000005546000041
:104F1C00000000005546000000000000554600004F
:104F2C00000000005546000000000000554600003F
:104F3C00000000005546000000000000554600002F
:104F4C00000000005546000000000000554600001F
:104F5C00000000005546000000000000091700008A
:104F6C0000000000554600000000000055460000FF
:104F7C0000000000554600000000000055460000EF
:104F8C0000000000554600000000000055460000DF
:104F9C0000000000554600000000000055460000CF
:104FAC0000000000554600000000000055460000BF
:104FBC0000000000554600000000000055460000AF
:104FCC00000000005546000000000000554600009F
:104FDC00000000005546000000000000554600008F
:104FEC00000000005546000000000000554600007F
:104FFC00000000005546000000000000554600006F
:08500C00000000005546000001
:1050140046540000AD0C000000000000465400009F
:10502400314600000000000046540000A1130000B7
:105034000000000046540000BD1300000000000002
:105044007D5200003B460000000000008752000033
:105054003B4600000000000091520000551700007C
:105064000000000046540000691F0000000000001A
:10507400EE56000061280000645100003252000026
:10508400112B00006C51000076520000752F0000B7
:10509400F556000046540000193D000000000000D1
:0C50A400FFFFFFFFFFFFFFFFFFFFFFFF0C
:1050B0000338FDD87047000007A9022570889B8837
:1050C0003C001A3152001A339A001A351D011A3762
:1050D0006B003B31BE003B335E013B3596023B37F4
:1050E00007040009080540080910400808054008A1
:1050F0001D0400081D040008405C0000A05C0400C2
:10510000C06C0800805C0400E03F1E00E07D1E00D3
:10511000020000001851000000000000535200007F
:1051200024000207000000205B5200001E000B114B
:10513000751500000000000000000000B114000020
:105140003D14000000000000AD490000EB480000E5
:105150002749000057490000154B0000D34A0000C2
:10516000000000000000005000000000004000406F
:1051700000000000FF000000F52B0000D74B0000EE
:10518000152F0000412F0000952D0000A92D0000D3
:10519000774C0000F4160020601700206C170020E8
:1051A0008417002084170020F5FFFFFF8C010020EA
:1051B00087008D00000098599859EA518E421E458B
:1051C000142E0080EA51F4283233E03A703DE03A80
:1051D000C235842BC2353233C235C235AE47E03AD0
:1051E0005038A23050380A001600010006000100B5
:1051F000020053494D504C452052582076312E33F1
:1052000000494E4954204641494C4544004461748C
:10521000612052656365697665642025730A000024
:10522000000102030400054010081E265626BEBEDB
:10523000D8BC5350495F3100436F756C64206E6F6A
:10524000742066696E6420535049206472697665E3
:10525000720A00464C4153485F30005352414D5F43
:1052600030005465726D696E616C00525454005385
:10527000454747455200554152545F3000434C4F1B
:10528000434B5F33324B00434C4F434B5F31364D02
:10529000007379735F636C6F636B002A2A2A2A2A72
:1052A00020425553204641554C54202A2A2A2A2A66
:1052B0000A002020537461636B696E672065727207
:1052C0006F720A0020205072656369736520646103
:1052D000746120627573206572726F720A002020FB
:1052E0004246415220416464726573733A203078BB
:1052F00025780A002020496D707265636973652006
:105300006461746120627573206572726F720A0045
:105310002020496E737472756374696F6E206275B4
:1053200073206572726F720A0052657365727665DA
:105330006420457863657074696F6E20280053702F
:105340007572696F757320696E74657272757074A9
:10535000202849525120002A2A2A2A2A204841522C
:1053600044204641554C54202A2A2A2A2A0A002041
:1053700020427573206661756C74206F6E207665AF
:1053800063746F72207461626C6520726561640A77
:105390000020204661756C7420657363616C6174D4
:1053A000696F6E20287365652062656C6F77290AC6
:1053B000002A2A2A2A2A204465627567206D6F6EAA
:1053C00069746F7220657863657074696F6E2028E8
:1053D0006E6F7420696D706C656D656E746564299F
:1053E000202A2A2A2A2A0A002A2A2A2A2A20257337
:1053F00020256429202A2A2A2A2A0A002A2A2A2A37
:105400002A204D5055204641554C54202A2A2A2AFC
:105410002A0A002020537461636B696E67206572ED
:10542000726F722028636F6E746578742061726584
:1054300061206D69676874206265206E6F742076E4
:10544000616C6964290A002020556E737461636B76
:10545000696E67206572726F720A00202044617461
:1054600061204163636573732056696F6C61746971
:105470006F6E0A0020204D4D4641522041646472F7
:105480006573733A20307825780A002020496E73BE
:105490007472756374696F6E204163636573732002
:1054A00056696F6C6174696F6E0A002020466C6FDC
:1054B0006174696E672D706F696E74206C617A79A2
:1054C000207374617465207072657365727661749F
:1054D000696F6E206572726F720A002A2A2A2A2A60
:1054E000205553414745204641554C54202A2A2AED
:1054F0002A2A0A0020204469766973696F6E206247
:1055000079207A65726F0A002020556E616C696798
:105510006E6564206D656D6F72792061636365737C
:10552000730A0020204E6F20636F70726F63657383
:10553000736F7220696E737472756374696F6E73C2
:105540000A002020496C6C6567616C206C6F616497
:10555000206F66204558435F52455455524E20698E
:105560006E746F2050430A002020496C6C6567619F
:105570006C20757365206F662074686520455053F4
:10558000520A002020417474656D707420746F207D
:105590006578656375746520756E646566696E65AA
:1055A0006420696E737472756374696F6E0A002A81
:1055B0002A2A2A2A204861726477617265206578F8
:1055C00063657074696F6E202A2A2A2A2A0A002AC3
:1055D0002A2A2A204B65726E656C20416C6C6F63C1
:1055E0006174696F6E204661696C75726521202A4D
:1055F0002A2A2A0A002A2A2A2A2A204B65726E653C
:105600006C204F4F505321202A2A2A2A2A0A002A86
:105610002A2A2A2A204B65726E656C2050616E69B9
:105620006321202A2A2A2A2A0A002A2A2A2A2055DD
:105630006E6B6E6F776E20466174616C204572727E
:105640006F7220256421202A2A2A2A0A00437572B3
:1056500072656E7420746872656164204944203DEF
:105660002025700A4661756C74696E6720696E73D7
:105670007472756374696F6E2061646472657373AC
:10568000203D20307825780A004953520065737315
:10569000656E7469616C207468726561640046614E
:1056A00074616C206661756C7420696E20257321AD
:1056B000205370696E6E696E672E2E2E0A00466149
:1056C00074616C206661756C7420696E20746872F8
:1056D000656164202570212041626F7274696E6774
:1056E0002E0A002D2B20233000686C4C7A00475086
:1056F000494F5F3000002A2A2A2A2A2D3E20426F75
:105700006F74696E67205A6570687972204F5320F4
:1057100076312E31342E302D7263312D31353139C1
:105720002D67646435623863376162346636203CC5
:105730002D2A2A2A2A2A0A006D61696E0069646C82
:045740006500000000
:10574400080000208F4200000090D003AB48000006
:10575400000000008C1600208C16002000000000C1
:10576400010000009C1600209C1600200000000090
:105774000100000000000000000000000000000024
:105784000000000000000000000000000000000015
:105794000000000000000000000000000000000005
:1057A40000C2010000010300E0160020E016002002
:0C57B40005021400090901020300810035
:1057C0001450000000000000000000002050000005
:1057D00000000000000000009850000000000000E1
:1057E0000000000038500000000000000000000031
:1057F000685000000000000000000000445000005D
:105800003051000000000000505000003C510000EA
:10581000000000008C50000080510000D8160020CD
:105820002C50000000000000000000005C50000050
:10583000000000000000000074500000485100000B
:105840006C01002080500000785100008816002074
:1058500084170020841700200000000000000000D2
:105860000F0000009817002098170020000000008B
:08587000000000000F00000021
:0400000300001E617A
:00000001FF
